:100000000C9458000C9480000C9480000C94800098
:100010000C9480000C9480000C9480000C94800060
:100020000C9480000C9480000C9480000C94800050
:100030000C9480000C9480000C9480000C94800040
:100040000C94940E0C9480000C94040F0C94DE0E0F
:100050000C9480000C9480000C9480000C94800020
:100060000C94360F0C94800000000000250028003E
:100070002B00040404040404040402020202020229
:10008000030303030303010204081020408001025C
:1000900004081020010204081020000000080002DB
:1000A00001000003040700000000000000005510DC
:1000B00011241FBECFEFD8E0DEBFCDBF24E0A4E205
:1000C000B2E001C01D92AE3DB207E1F712E0A0E040
:1000D000B1E0ECE9F0E302C005900D92A432B10763
:1000E000D9F710E0C8E5D0E004C02197FE010E94D6
:1000F0003C15C735D107C9F70E9402110C944C1862
:100100000C94000090E0FC01E656FF4F2491FC01A6
:10011000EA57FF4F3491FC01EE58FF4FE491EE2374
:10012000C9F0222339F0233001F1A8F4213019F16C
:10013000223029F1F0E0EE0FFF1FE859FF4FA591A3
:10014000B4918FB7F894EC91611126C030953E239D
:100150003C938FBF08952730A9F02830C9F0243090
:1001600049F7809180008F7D03C0809180008F7758
:1001700080938000DFCF84B58F7784BDDBCF84B5DB
:100180008F7DFBCF8091B0008F778093B000D2CF6E
:100190008091B0008F7DF9CF3E2BDACF3FB7F89436
:1001A0008091050390910603A0910703B091080385
:1001B00026B5A89B05C02F3F19F00196A11DB11DC2
:1001C0003FBFBA2FA92F982F8827BC01CD01620FFE
:1001D000711D811D911D42E0660F771F881F991FB9
:1001E0004A95D1F708958F929F92AF92BF92CF9286
:1001F000DF92EF92FF924B015C010E94CE006B01F7
:100200007C010E94CE006C197D098E099F09683E11
:10021000734081059105A8F321E0821A9108A10895
:10022000B10888EEC80E83E0D81EE11CF11C8114D1
:100230009104A104B10429F7FF90EF90DF90CF90D3
:10024000BF90AF909F908F90089508950895AF92BA
:10025000BF92CF92DF92EF92FF920F931F93CF93B3
:10026000DF936C017B018B01040F151FEB015E0115
:10027000AE18BF08C017D10759F06991D601ED91AA
:10028000FC910190F081E02DC6010995892B79F749
:10029000C501DF91CF911F910F91FF90EF90DF90FB
:1002A000CF90BF90AF900895FC01538D448D252FC2
:1002B00030E0842F90E0821B930B541710F0CF9600
:1002C000089501970895FC01918D828D981761F032
:1002D000A28DAE0FBF2FB11D5D968C91928D9F5F49
:1002E0009F73928F90E008958FEF9FEF0895FC0128
:1002F000918D828D981731F0828DE80FF11D858DDB
:1003000090E008958FEF9FEF0895FC01918D228D6D
:10031000892F90E0805C9F4F821B91098F739927F2
:10032000089589E793E00E94850121E0892B09F473
:1003300020E0822F089580E090E0892B29F00E9430
:10034000910181110C9400000895FC01A48DA80F67
:10035000B92FB11DA35ABF4F2C91848D90E0019607
:100360008F739927848FA689B7892C93A089B18927
:100370008C91837080648C93938D848D981306C0C8
:100380000288F389E02D80818F7D80830895EF922C
:10039000FF920F931F93CF93DF93EC0181E0888F3F
:1003A0009B8D8C8D98131AC0E889F989808185FF0F
:1003B00015C09FB7F894EE89FF896083E889F989B1
:1003C00080818370806480839FBF81E090E0DF91B3
:1003D000CF911F910F91FF90EF900895F62E0B8D06
:1003E00010E00F5F1F4F0F731127E02E8C8D8E11C1
:1003F0000CC00FB607FCFACFE889F989808185FF28
:10040000F5CFCE010E94A501F1CFEB8DEC0FFD2FB2
:10041000F11DE35AFF4FF0829FB7F8940B8FEA89E2
:10042000FB8980818062CFCFCF93DF93EC01888DF1
:100430008823B9F0AA89BB89E889F9898C9185FD5F
:1004400003C0808186FD0DC00FB607FCF7CF8C91ED
:1004500085FFF2CF808185FFEDCFCE010E94A501FF
:10046000E9CFDF91CF91089520914502260F3327E0
:10047000331F21323105ECF420914F03FC0190E051
:1004800080E0243069F082E00895A0914502219136
:10049000AC014B5D5D4FA40FB52FB11D2C930196A0
:1004A000861798F380914502680F6093450280E0BB
:1004B000089581E0089510924F0381E080934E03E8
:1004C0001092290361E082E10E94820061E083E1F1
:1004D0000E948200E9EBF0E080818E7F8083808142
:1004E0008D7F808388E48093B80085E48093BC008E
:1004F0000895CF93DF9391E0909324028823B9F07D
:10050000C091B800D091BA008091BC008A7B8093E2
:10051000BC0060E082E10E94820060E083E10E9412
:1005200082000E945B02D093BA00C093B800DF91B2
:10053000CF9108958F929F92AF92BF92CF92DF9208
:10054000EF92FF920F931F93CF93DF93D091780395
:10055000D13208F0D7C0182FC09177030E94CE0087
:100560006B017C0180914F0381116BC082E080930D
:100570004F0310934E038FEF80934D0310924C0363
:10058000D0934B03A7E5B3E0EBE2F3E080E0D813B0
:1005900091C010922A0380912A03CC0FC82BC093DC
:1005A0002A0380912903813009F088C01092290321
:1005B0000E94CE006B017C0180912A038093BB00D6
:1005C0008091510390915203A0915303B091540331
:1005D000892B8A2B8B2BA1F00E94CE000091510316
:1005E0001091520320915303309154036C197D09EB
:1005F0008E099F09061717072807390708F442C014
:100600008091BC0083FDD8CF85EC8093BC000E9414
:10061000CE006B017C0180914F03823009F450C001
:1006200080914D038F3F09F46FC080914D0380325C
:1006300009F46CC080914D03803309F469C084E0F3
:1006400026C08091510390915203A0915303B09121
:100650005403892B8A2B8B2B09F484CF0E94CE0064
:100660008090510390905203A0905303B090540394
:100670006C197D098E099F0986169706A806B9068A
:1006800008F070CF809150030E94790285E01092AB
:1006900056031092780310925503DF91CF911F916A
:1006A0000F91FF90EF90DF90CF90BF90AF909F9011
:1006B0008F9008959D9191938F5F69CF85EEA5CF1F
:1006C0008091510390915203A0915303B091540330
:1006D000892B8A2B8B2B09F49ECF0E94CE00009190
:1006E00051031091520320915303309154036C191C
:1006F0007D098E099F09061717072807390708F093
:100700008ACFC0CF81E0C3CF80E0C1CF82E0BFCF2E
:1007100083E0BDCF1F93CF93DF93EC01122F81E0D5
:1007200080935503609377031092560310927803D9
:10073000E881F9810190F081E02D642FCE010995C7
:10074000E881F9810190F081E02D612FCE010995BA
:1007500081E0DF91CF911F910C949A02FC01603DE2
:1007600087E07807B9F480E090E0AAE7BDE38683EC
:100770009783A087B18728E1DF01A75ABF4FE65AC8
:10078000FF4F4BE16C91808191810E948A0390E040
:1007900080E00895683E83E0780751F480E090E0BF
:1007A000AAEFBCE386839783A087B18720E1E4CFDB
:1007B000643F81E0780751F480E090E0AAE7BCE371
:1007C00086839783A087B18728E0D6CF6A3F7105DB
:1007D00051F480E090E0AAEFBBE386839783A08783
:1007E000B18720E0C9CF8FEF9FEF0895FC01603102
:1007F0007105B9F480E090E0A0E0BAE382839383CE
:10080000A483B58328E1DF01A75ABF4FE65AFF4F03
:100810004CE16C91808191810E948A0390E080E09C
:1008200008956830710551F480E090E0A0E8B9E3E4
:1008300082839383A483B58320E1E5CF643071057F
:1008400051F480E090E0A0E0B9E382839383A48335
:10085000B58328E0D8CF6230710551F480E090E094
:10086000A0E8B8E382839383A483B58320E0CBCF51
:100870008FEF9FEF0895CF92DF92EF92FF920F9349
:100880001F93CF93DF93D82FC62F613208F098C003
:100890000E94CE006B017C0180914F0381116BC0DF
:1008A00081E080934F0380934E039FEF90934D031D
:1008B00010924C039C0F90934B0380932A038091DA
:1008C0002A03DD0FD82BD0932A038091290381308E
:1008D00009F078C0109229030E94CE006B017C01C0
:1008E00080912A038093BB00809151039091520321
:1008F000A0915303B0915403892B8A2B8B2BA1F029
:100900000E94CE0000915103109152032091530395
:10091000309154036C197D098E099F09061717073A
:100920002807390708F448C08091BC0083FDD8CF60
:1009300085EC8093BC000E94CE006B017C0180910D
:100940004F03813009F440C080914C038C1710F4A0
:10095000C0914C03EBE2F3E0A9E0B3E080E08C133C
:1009600055C08C2FDF91CF911F910F91FF90EF9089
:10097000DF90CF9008958091510390915203A09100
:100980005303B0915403892B8A2B8B2B09F484CF0A
:100990000E94CE0000915103109152032091530305
:1009A000309154036C197D098E099F0906171707AA
:1009B0002807390708F070CF809150030E94790210
:1009C000C0E0CFCF85EEB5CF809151039091520317
:1009D000A0915303B0915403892B8A2B8B2B09F4DC
:1009E000AECF0E94CE00009151031091520320918E
:1009F0005303309154036C197D098E099F09061722
:100A000017072807390708F09ACFD6CF91919D9301
:100A10008F5FA5CF0895E0916D0280916C02E81779
:100A200030F4F0E0E75FFC4F808190E008958FEFB5
:100A30009FEF089590916D0280916C022FEF3FEF30
:100A4000981748F4E92FF0E0E75FFC4F208130E091
:100A50009F5F90936D02C901089580916C029091FF
:100A60006D02891B990B0895CF92DF92EF92FF924E
:100A70000F931F93CF93DF937C01CB018A012091C9
:100A80005503222389F0EB016B01C40ED51ECC1552
:100A9000DD0569F06991D701ED91FC910190F0813C
:100AA000E02DC7010995F3CF642F0E943402C801DD
:100AB000DF91CF911F910F91FF90EF90DF90CF903A
:100AC0000895CF93DF931F92CDB7DEB7698320914E
:100AD00055032223F9F020917803203258F021E0C9
:100AE00030E0FC013383228390E080E00F90DF91BF
:100AF000CF91089580915603E82FF0E0E95AFC4F1A
:100B0000998190838F5F809356038093780381E06F
:100B100090E0ECCF61E0CE0101960E943402F7CF65
:100B200090E080E00895089580E0089581E00895C0
:100B30000895FC017387628790E080E00895FC01CE
:100B400064857585868597850895FC010190002050
:100B5000E9F73197AF01481B590BBC0189E793E0D6
:100B60000C9427018F929F92AF92BF920F931F9385
:100B7000CF93DF93CDB7DEB7A1970FB6F894DEBF62
:100B80000FBECDBF19A2423008F44AE08E010F5DBE
:100B90001F4F842E912CB12CA12CA50194010E94F1
:100BA000FB14E62FB901CA01EA30F4F4E05DD80184
:100BB000EE938D01232B242B252B79F790E080E0F9
:100BC000109719F0CD010E94A505A1960FB6F894D3
:100BD000DEBF0FBECDBFDF91CF911F910F91BF90B0
:100BE000AF909F908F900895E95CE1CF0C94A5059C
:100BF000CF93DF930E94A505EC0186E591E00E946A
:100C0000A5058C0F9D1FDF91CF910895CF92DF92A4
:100C1000EF92FF92CF93DF936C01990FEE08FF08DC
:100C2000F7FE1FC06DE289E793E00E94C701EC0167
:100C300066277727CB016C197D098E099F094AE049
:100C40000E94B205C80FD91F86E591E00E94A50554
:100C50008C0F9D1FDF91CF91FF90EF90DF90CF9091
:100C600008954AE0C701B6010E94B205EC01ECCF3D
:100C70004F925F926F927F928F929F92AF92BF92AC
:100C8000CF92DF92EF92FF920F931F93CF936B015E
:100C90007C01742EAC019B010E945516882399F0AB
:100CA00089E591E0CF911F910F91FF90EF90DF9038
:100CB000CF90BF90AF909F908F907F906F905F90FC
:100CC0004F900C94A50546015701E894B7F82FEF13
:100CD0003FEF4FE75FE7C501B4010E945516811150
:100CE0000DC02FEF3FEF4FE75FE7C501B4010E9452
:100CF0008C1318161CF48DE591E0D4CF2FEF3FEF45
:100D00004FE75FE4C701B6010E94501618161CF4A5
:100D100081E691E0C7CF2FEF3FEF4FE75FECC701D0
:100D2000B6010E948C1387FDF3CF20E030E0A901CB
:100D3000C701B6010E948C1310E000E087FF0AC0D3
:100D40006DE289E793E00E94C7018C01F7FAF09405
:100D5000F7F8F094C0E060E070E080E09FE37C167C
:100D600041F020E030E040E251E40E94AF15CF5F57
:100D7000F6CFA70196010E9443152B013C010E946A
:100D800021164B015C014AE00E94B2057C01E00E95
:100D9000F11ECC23C1F1C501B4010E9491139B0146
:100DA000AC01C301B2010E9442154B015C016EE22D
:100DB00089E793E00E94C701E80EF91EC15018F1BF
:100DC00020E030E040E251E4C501B4010E94F2139A
:100DD0002B013C010E9421164B01B12CA12C4AE0B1
:100DE000C501B4010E94B205E80EF91EC501B401A7
:100DF0000E9491139B01AC01C301B2010E944215F4
:100E00004B015C01DBCFC701CF911F910F91FF9088
:100E1000EF90DF90CF90BF90AF909F908F907F909A
:100E20006F905F904F900895CF93DF9342E00E94C0
:100E30003806EC0186E591E00E94A5058C0F9D1F08
:100E4000DF91CF91089542E00C943806CF92DF9263
:100E5000EF92FF920F931F93CF93DF93EC01F62E47
:100E6000E22E680181E0809355036093770310922E
:100E7000560310927803E881F9810190F081E02D0A
:100E8000642FCE01099580E00E949A026E2D8F2D6D
:100E90000E943B0410926D0280936C0210E0E88186
:100EA000F9810084F185E02DCE010995892B69F047
:100EB000E881F9810284F385E02DCE010995F601E0
:100EC000E10FF11D80831F5FEACFDF91CF911F916A
:100ED0000F91FF90EF90DF90CF9008952F923F9267
:100EE0004F925F926F927F928F929F92AF92BF923A
:100EF000CF92DF92EF92FF920F931F93CF93DF93E6
:100F0000CDB7DEB7AA970FB6F894DEBF0FBECDBF40
:100F10009AA789A71B016C0129E5C20ED11C7C018F
:100F20003AE5E30EF11C20E84BE6D6016C91F7019F
:100F3000808191810E948A0364E670E080E090E005
:100F40000E94F30021E04BE6D6016C91F70180810D
:100F500091810E948A0320E04CE6D6016C91F70152
:100F6000808191810E948A0368EC70E080E090E0CB
:100F70000E94F30020E048E3D6016C91F7018081E4
:100F800091810E948A0320E043E2D6016C91F7012F
:100F9000808191810E948A0320E04BE6D6016C910A
:100FA000F701808191810E948A0320E044E2D6010A
:100FB0006C91F701808191810E948A0320E04AE6CA
:100FC000D6016C91F701808191810E948A032CE007
:100FD0004AE6D6016C91F701808191810E948A03D3
:100FE0006FE070E080E090E00E94F30021E04AE1D1
:100FF000D6016C91F701808191810E948A0320E0E3
:1010000049E1D6016C91F701808191810E948A03A8
:1010100020E04BE1D6016C91F701808191810E9423
:101020008A0320E04CE1D6016C91F7018081918127
:101030000E948A0320E44AE6D6016C91F701808180
:1010400091810E948A0328E143E2D6016C91F70165
:10105000808191810E948A0368E270E080E090E0E4
:101060000E94F3009E012F5F3F4F5901890122E04A
:1010700042E7D6016C91F701808191810E94260799
:1010800020E043E2D6016C91F701808191810E94BA
:101090008A0389819A819827892798276CE070E0D4
:1010A0000E94E7147A8B698B1D8A1E8A1F8A188E0C
:1010B0001D861E861F86188A412C512C320119A2CA
:1010C0001AA21BA21CA2198E1A8E1B8E1C8E1DA288
:1010D0001EA21FA218A6912C812CFE8EED8E7501EA
:1010E00029893A898216930609F485C087012CE084
:1010F00044E7D6016C91ED8DFE8D808191810E9437
:10110000260789819A81982789279827092E000C1C
:10111000AA0BBB0B480E591E6A1E7B1E8B819C813D
:10112000982789279827092E000CAA0BBB0B2D8521
:101130003E854F855889280F391F4A1F5B1F2D8711
:101140003E874F87588B8D819E81982789279827C6
:10115000092E000CAA0BBB0B2D893E894F89588D97
:10116000280F391F4A1F5B1F2D8B3E8B4F8B588FCB
:101170008F819885982789279827092E000CAA0B1C
:10118000BB0B2DA13EA14FA158A5280F391F4A1F07
:101190005B1F2DA33EA34FA358A789859A85982747
:1011A00089279827092E000CAA0BBB0B298D3A8D95
:1011B0004B8D5C8D280F391F4A1F5B1F298F3A8F7B
:1011C0004B8F5C8F8B859C85982789279827092EC4
:1011D000000CAA0BBB0B29A13AA14BA15CA1280FC3
:1011E000391F4A1F5B1F29A33AA34BA35CA33FEF00
:1011F000831A930A75CFB12CA12CC301B201A501AA
:1012000094010E941D15298B3A8B4B8B5C8B2D8F83
:101210003E8F4F8F58A36D857E858F859889A50158
:1012200094010E941D1529013A014D865E866F8644
:10123000788A6D897E898F89988DA50194010E9495
:101240001D1569017A016DA17EA18FA198A5A50147
:1012500094010E941D152D8B3E8B4F8B588F698DED
:101260007A8D8B8D9C8DA50194010E941D15298F6F
:101270003A8F4B8F5C8F69A17AA18BA19CA1A501AC
:1012800094010E941D1549015A01A9A5BAA51A96F3
:101290008D919C918430910509F4ACC00CF085C00F
:1012A00097FF99C06D8D7E8D8F8D98A10E949313AD
:1012B00020E030E040E858E30E94F213D10111969B
:1012C0006D937D938D939C9314976D857E858F850B
:1012D00098890E94931320E030E040E858E30E9490
:1012E000F213F1016583768387839087C701B60186
:1012F0000E94931320E030E040E858E30E94F2138C
:10130000D10119966D937D938D939C931C976D8954
:101310007E898F89988D0E94931320E030E043E00E
:1013200053E40E94AF15F101658776878787908B1C
:10133000698D7A8D8B8D9C8D0E94931320E030E017
:1013400043E053E40E94AF15D10151966D937D9314
:101350008D939C935497C501B4010E94931320E090
:1013600030E043E053E40E94AF15F101658B768BCA
:10137000878B908F81E08083AA960FB6F894DEBFAA
:101380000FBECDBFDF91CF911F910F91FF90EF90D6
:10139000DF90CF90BF90AF909F908F907F906F9095
:1013A0005F904F903F902F9008958630910511F1F6
:1013B0001CF0079709F076CF1414150416041704CF
:1013C000B4F5A30192013054410951092D873E879C
:1013D0004F87588B67CF1C141D041E041F042CF468
:1013E000B0E4DB1AE108F1085DCFE0E4DE0EE11CB9
:1013F000F11C58CF29893A894B895C89121613064A
:101400001406150644F43054410951092D8F3E8FBE
:101410004F8F58A347CF89899A89AB89BC89905C43
:10142000AF4FBF4F8D8F9E8FAF8FB8A33BCFD301F0
:10143000C201905CAF4FBF4F8D879E87AF87B88B3F
:1014400031CF1F93CF93DF93EC01162F81E0809370
:101450005503609377031092560310927803E88146
:10146000F9810190F081E02D642FCE01099580E093
:101470000E949A0261E0812F0E943B0410926D024B
:1014800080936C02E881F9810284F385E02DCE011E
:101490000995DF91CF911F9108952F923F924F921E
:1014A0005F926F927F928F929F92AF92BF92CF92F4
:1014B000DF92EF92FF920F931F93CF93DF93CDB7FD
:1014C000DEB76E970FB6F894DEBF0FBECDBF7C01BE
:1014D0005C0129E5A20EB11C6C013AE5C30ED11CDA
:1014E0004AE3D5016C91F601808191810E94210A25
:1014F00080FF55C18E010F5F1F4F2EE04BE3D501DA
:101500006C91F601808191810E942607C984DA845A
:10151000DC24CD24DC240B851C8510270127102713
:101520002D843E84322423243224D70112968D90B8
:101530009D90AD90BC90159769817A817627672739
:101540007627072E000C880B990B0E949313A50198
:1015500094010E94F213F70121A532A543A554A5D9
:101560000E9442156F87788B898B9A8B6B817C8167
:10157000762767277627072E000C880B990B0E9489
:101580009313A50194010E94F213D7019D962D910A
:101590003D914D915C91D0970E9442156B8B7C8B55
:1015A0008D8B9E8B6D817E81762767277627072E10
:1015B000000C880B990B0E949313A50194010E94C3
:1015C000F213F70121A932A943A954A90E94421597
:1015D0004B015C016F817885762767277627072E78
:1015E000000C880B990B0E94931320E030E048EA2E
:1015F00051E40E9442152CE53FEE46EA53E40E9476
:10160000AF1520E030E048EA51E40E944315D701CD
:101610001C966D937D938D939C931F9716962D9199
:101620003D914D915C9119972B8F3C8F4D8F5E8F23
:10163000B601DD0C880B990B0E9493132B8D3C8D0A
:101640004D8D5E8D0E94F213F70125A936A947A999
:1016500050AD0E9442156F8B788F898F9A8FB80199
:10166000110F880B990B0E9493132B8D3C8D4D8D80
:101670005E8D0E94F213D701D9962D913D914D9127
:101680005C91DC970E9442152B013C01B101330CA7
:10169000880B990B0E9493132B8D3C8D4D8D5E8D85
:1016A0000E94F213F701FD9620813181428153811E
:1016B0000E944215D7011A96ED91FC911B97E830D4
:1016C000F10508F06CC0E959F44F0C943C156F0B10
:1016D0009D0BE80B110C350C690C9F0CD20C2F855F
:1016E000388949895A8950962D933D934D935C933F
:1016F00053972F89388D498D5A8D5C962D933D9344
:101700004D935C935F972B893C894D895E895496F4
:101710002D933D934D935C935797F70140A251A2AF
:1017200062A273A258968D929D92AD92BC925B97E5
:1017300064A375A386A397A332C00B891C892D8946
:101740003E89305850960D931D932D933C9353979B
:1017500077FA709477F87094F701448E558E668E00
:10176000778E2F85388949895A8954962D933D93D0
:101770004D935C9357972F89388D498D5A8D90964C
:101780002D933D934D935C939397808E918EA28E73
:10179000B38E94966D937D938D939C9397976E964D
:1017A0000FB6F894DEBF0FBECDBFDF91CF911F9172
:1017B0000F91FF90EF90DF90CF90BF90AF909F90F0
:1017C0008F907F906F905F904F903F902F900895F3
:1017D0000F85188929893A893058F701008B118BB8
:1017E000228B338B0F89188D298D3A8D30585C965A
:1017F0000D931D932D933C935F970B891C892D8925
:101800003E893058048B158B268B378B77FA709472
:1018100077F8709490964D925D926D927C9293972A
:10182000B4CF2B893C894D895E8950962D933D9389
:101830004D935C935397F701448E558E668E778E49
:101840000F85188929893A89305854960D931D932C
:101850002D933C9357970F89188D298D3A8D3058C9
:1018600000A311A322A333A35DCFB7FAB094B7F8B6
:10187000B09450968D929D92AD92BC925397905891
:10188000F701648F758F868F978F8B899C89AD89BF
:10189000BE89B058848B958BA68BB78B77FA7094E2
:1018A00077F8709440A251A262A273A28F859889A2
:1018B000A989BA89B058808F918FA28FB38F8F89F1
:1018C000988DA98DBA8DB05884A395A3A6A3B7A36C
:1018D00066CFB7FAB094B7F8B09450968D929D92B7
:1018E000AD92BC9253979058F701648F758F868F95
:1018F000978F2F85388949895A8954962D933D931E
:101900004D935C9357972F89388D498D5A8D9096BA
:101910002D933D934D935C9393978B899C89AD89CF
:10192000BE89B058808F918FA28FB38F77FA709451
:1019300077F8709444A255A266A277A230CFB7FA86
:10194000B094B7F8B094F701808A918AA28AB38ADA
:1019500090585C966D937D938D939C935F972B89A4
:101960003C894D895E8954962D933D934D935C93AC
:10197000579740A251A262A273A22F853889498944
:101980005A8958962D933D934D935C935B972F897D
:10199000388D498D5A8D94962D933D934D935C933C
:1019A0009797FDCEB7FAB094B7F8B094F701808A54
:1019B000918AA28AB38A90585C966D937D938D9399
:1019C0009C935F978F859889A989BA89B058848B31
:1019D000958BA68BB78B8F89988DA98DBA8DB058B2
:1019E00080A391A3A2A3B3A32B893C894D895E89CF
:1019F000208F318F428F538F44A255A266A277A2C7
:101A0000CECEEF92FF920F931F93CF93DF93CDB77C
:101A1000DEB76AAD7C0129E5E20EF11CD7016C93BB
:101A200029852111ABC021E3FC01B896DF011D928D
:101A30002A95E9F78C01065A1F4F45E7F801808186
:101A400091810E94210A893109F0A2C020E84BE669
:101A5000D7016C91F801808191810E948A0364E62C
:101A600070E080E090E00E94F30020E04BE6D701B8
:101A70006C91F801808191810E948A0364E670E094
:101A800080E090E00E94F30021E04BE6D7016C91EA
:101A9000F801808191810E948A0368EC70E080E007
:101AA00090E00E94F30023E04AE1D7016C91F80135
:101AB000808191810E948A0322E049E1D7016C91E3
:101AC000F801808191810E948A034BE1D7016C91DA
:101AD000F801808191810E94210A847E282F28614B
:101AE0004BE1D7016C91F801808191810E948A03BA
:101AF0004CE1D7016C91F801808191810E94210A0B
:101B0000282F28614CE1D7016C91F80180819181E7
:101B10000E948A034DE1D7016C91F8018081918187
:101B20000E94210A807F282F23604DE1D7016C910C
:101B3000F801808191810E948A0322E247E3D70164
:101B40006C91F801808191810E948A0321E048E331
:101B5000D7016C91F801808191810E948A0364E62B
:101B600070E080E090E00E94F30090E080E0DF9180
:101B7000CF911F910F91FF90EF90089521E3FE0107
:101B80003996DC01989601900D922A95E1F752CF93
:101B90008FEF9FEFECCF0C94F616EF92FF920F931E
:101BA0001F93CF93DF93EC017B01FB010190002099
:101BB000E9F731978F01061B170B888199810097F0
:101BC00029F02A813B812017310788F4B8016F5F23
:101BD0007F4F0E947F170097B9F0998388831B83FA
:101BE0000A832C813D81232B11F4FC0110821D837B
:101BF0000C83B70188819981DF91CF911F910F915B
:101C0000FF90EF900C94451888819981009711F00E
:101C10000E94F616198218821D821C821B821A826B
:101C2000DF91CF911F910F91FF90EF900895CF9387
:101C3000DF93EC01198218821B821A821D821C829A
:101C400065E671E00E94CD0DCE01DF91CF91089540
:101C5000CF93DF93EC01198218821B821A821D82B6
:101C60001C826EE671E00E94CD0DCE01DF91CF9116
:101C70000895CF93DF93EC01198218821B821A8298
:101C80001D821C8269E771E00E94CD0DCE01DF91BB
:101C9000CF910895FC017C969CE0DB0101900D92B0
:101CA0009A95E1F70895FC0170969CE0DB010190A4
:101CB0000D929A95E1F7089585ED8093BC0080918F
:101CC000510390915203A0915303B091540307968E
:101CD000A11DB11D23E0B695A795979587952A95E7
:101CE000D1F72091BC0024FD03C010924F0308954A
:101CF00040915103509152036091530370915403EA
:101D0000452B462B472B69F30097A105B10541F000
:101D10002AE22A95F1F700C00197A109B109E1CFA4
:101D2000809150030C9479021F920F920FB60F927C
:101D300011242F933F938F939F93AF93BF938091E1
:101D4000010390910203A0910303B0910403309129
:101D5000000323E0230F2D3758F50196A11DB11D77
:101D6000209300038093010390930203A093030345
:101D7000B09304038091050390910603A09107039B
:101D8000B09108030196A11DB11D809305039093A6
:101D90000603A0930703B0930803BF91AF919F91EF
:101DA0008F913F912F910F900FBE0F901F9018951C
:101DB00026E8230F0296A11DB11DD2CF1F920F92CC
:101DC0000FB60F9211242F933F934F935F936F930E
:101DD0007F938F939F93AF93BF93EF93FF9389E785
:101DE00093E00E94A501FF91EF91BF91AF919F9168
:101DF0008F917F916F915F914F913F912F910F90B4
:101E00000FBE0F901F9018951F920F920FB60F9252
:101E100011242F938F939F93EF93FF93E091890366
:101E2000F0918A038081E0918F03F091900382FD0D
:101E30001BC09081809192038F5F8F7320919303D9
:101E4000821741F0E0919203F0E0E758FC4F958F44
:101E500080939203FF91EF919F918F912F910F901B
:101E60000FBE0F901F9018958081F4CF1F920F9294
:101E70000FB60F9211242F933F934F935F936F935D
:101E80007F938F939F93AF93BF93EF93FF93809133
:101E9000B900887F803609F44AC0F0F5883209F429
:101EA000A7C018F5803109F49BC0B8F4882309F461
:101EB000F9C0883009F494C0FF91EF91BF91AF91C0
:101EC0009F918F917F916F915F914F913F912F9152
:101ED0000F900FBE0F901F901895883109F488C09D
:101EE000803251F780934D0314C0803409F49DC0B3
:101EF00040F48033B9F38833F9F680934D0385ECD1
:101F0000B0C0803509F485C0883509F496C088349E
:101F100099F60E945C0ED0CF883909F48CC038F550
:101F2000883729F050F4883611F0803729F683E09D
:101F300080934F031092670257C0883809F47BC022
:101F4000803919F0803809F0B7CF8091670280326C
:101F500008F071C0E091670281E08E0F8093670204
:101F60008091BB00F0E0E95BFD4F80833DC0803B8A
:101F700039F0E0F4803A09F479C0883A09F09CCF4E
:101F800084E080934F031092460210924502E09144
:101F90006A02F0916B0209958091450281110FC090
:101FA00081E0809345021092250209C0803C09F42B
:101FB000A6CF883C09F4A3CF883B09F07DCFE09100
:101FC000460281E08E0F80934602F0E0EB5DFD4F0C
:101FD00080818093BB00909146028091450229C088
:101FE00080912A038093BB0085EC8093BC0064CF72
:101FF00090914C0380914B03981758F5E0914C0356
:1020000081E08E0F80934C03F0E0E55DFC4F808112
:10201000E9CFE0914C0381E08E0F80934C038091D7
:10202000BB00F0E0E55DFC4F808390914C03809114
:102030004B039817C8F285E8D8CFE0914C0381E0B4
:102040008E0F80934C038091BB00F0E0E55DFC4F68
:10205000808380914E0381115CCF81E080932903BE
:1020600084EA8093BC0010924F0326CF85EC8093C6
:10207000BC0010924F0380916702803230F4E091EF
:102080006702F0E0E95BFD4F10826091670270E04B
:10209000E0916802F091690287E492E0099510925C
:1020A00067020ACF10924D0334CFEF92FF920F9345
:1020B0001F93CF93DF93E9E7F3E01382128288EE58
:1020C00093E0A0E0B0E084839583A683B7832AE001
:1020D00031E03183208325EC30E03587248724EC00
:1020E00030E03787268720EC30E0318B208B21ECE5
:1020F00030E0338B228B22EC30E0358B248B26ECC6
:1021000030E0378B268B118E128E138E148EE2E701
:10211000F4E01382128284839583A683B7838CE1D3
:1021200091E091838083AEE7B4E0CEE2D1E01196F6
:10213000DC93CE9300E010E020E03AE312960D939A
:102140001D932D933C93159740E050E06AE77DE3A3
:1021500016964D935D936D937C9319971B961C92E5
:102160001E921A971C961D921D921D921C921F97EB
:102170008CE09EE8E92E94E0F92ED701982F1D926D
:102180009A95E9F7AAE9EA2EA4E0FA2ED701982F4A
:102190001D929A95E9F7F093D904E093D804A6E14B
:1021A000B4E01196DC93CE9312960D931D932D936C
:1021B0003C93159716964D935D936D937C93199769
:1021C0001B961C921E921A971C961D921D921D9290
:1021D0001C921F97A6E2B4E0ED01982F19929A95F0
:1021E000E9F7A2E3B4E0ED0119928A95E9F7F093DB
:1021F0007104E0937004DF91CF911F910F91FF90D4
:10220000EF900895789484B5826084BD84B5816030
:1022100084BD85B5826085BD85B5816085BD8091B1
:102220006E00816080936E00109281008091810029
:102230008260809381008091810081608093810021
:10224000809180008160809380008091B1008460E3
:102250008093B1008091B00081608093B000809144
:102260007A00846080937A0080917A008260809303
:102270007A0080917A00816080937A0080917A0060
:10228000806880937A001092C10010926D021092C3
:102290006C0210925603109278030E945B0285E252
:1022A00091E090936B0280936A0286E291E09093B2
:1022B0006902809368028CE08093B800E091890302
:1022C000F0918A0382E08083E0918503F091860398
:1022D0001082E0918703F09188038FEC8083109245
:1022E0009103E0918D03F0918E0386E08083E0916D
:1022F0008B03F0918C03808180618083E0918B035C
:10230000F0918C03808188608083E0918B03F09151
:102310008C03808180688083E0918B03F0918C0333
:1023200080818F7D8083D8E6DF938DB79EB7C1977C
:102330000FB6F8949EBF0FBE8DBFADB7BEB7119656
:1023400081E3EFE9F2E001900D928A95E1F78EE7E3
:1023500094E00E94010D8DB79EB7C2960FB6F89417
:102360009EBF0FBE8DBFC9E6CF938DB79EB7C197F5
:102370000FB6F8949EBF0FBE8DBFADB7BEB7119616
:1023800081E3EEE6F2E001900D928A95E1F786E1B5
:1023900094E00E94010D8C018DB79EB7C2960FB6D6
:1023A000F8949EBF0FBE8DBF0115110541F081E865
:1023B00091E00E94F605C8010E940606FFCF8AE957
:1023C00091E00E94F80568E873E180E090E00E94E7
:1023D000F3008DEB91E00E94F80568E873E180E07E
:1023E00090E00E94F3006FE972E08EE794E00E94B3
:1023F0006E076EE672E086E194E00E946E078DEC57
:1024000091E00E94F8058FED91E00E94F80560913F
:10241000A0027091A1028091A2029091A3020E9459
:10242000230784EF91E00E94F6056091A402709169
:10243000A5028091A6029091A7020E94230784EF33
:1024400091E00E94F6056091A8027091A902809126
:10245000AA029091AB020E94140760916F027091E2
:10246000700280917102909172020E94230784EFA2
:1024700091E00E94F6056091730270917402809160
:102480007502909176020E94230784EF91E00E94EA
:10249000F6056091770270917802809179029091AF
:1024A0007A020E94140787EF91E00E94F80560917C
:1024B000AC027091AD028091AE029091AF020E9489
:1024C000230784EF91E00E94F6056091B0027091BD
:1024D000B1028091B2029091B3020E94230784EF6F
:1024E00091E00E94F6056091B4027091B50280916E
:1024F000B6029091B7020E94140760917B0270911E
:102500007C0280917D0290917E020E94230784EFDD
:1025100091E00E94F60560917F02709180028091A7
:102520008102909182020E94230784EF91E00E9431
:10253000F6056091830270918402809185029091EA
:1025400086020E94140768E873E180E090E00E9430
:10255000F300DF938DB79EB7C1970FB6F8949EBF77
:102560000FBE8DBFADB7BEB7119681E3EFE9F2E0C4
:1025700001900D928A95E1F78EE794E00E94010D9B
:102580008DB79EB7C2960FB6F8949EBF0FBE8DBF93
:10259000CF938DB79EB7C1970FB6F8949EBF0FBE6D
:1025A0008DBFADB7BEB7119681E3EEE6F2E00190C4
:1025B0000D928A95E1F786E194E00E94010D8DB7B6
:1025C0009EB7C2960FB6F8949EBF0FBE8DBF64EF44
:1025D00071E08EE794E00E94AE0362E070E08EE767
:1025E00094E00E94F60364EF71E086E194E00E94BB
:1025F000AE0362E070E086E194E00E94F603EC0135
:10260000892B09F081C0C0E0D0E08EE794E00E9401
:102610004D0A86E194E00E944D0A64EF72E08EE775
:1026200094E00E94530E68EE72E086E194E00E940E
:10263000530E6091F4027091F5028091F602909130
:10264000F7020E94230781E292E00E94F605609162
:10265000F8027091F9028091FA029091FB020E94B7
:10266000230781E292E00E94F6056091FC027091DE
:10267000FD028091FE029091FF020E94230781E2F9
:1026800092E00E94F6056091E8027091E902809163
:10269000EA029091EB020E94230781E292E00E94FD
:1026A000F6056091EC027091ED028091EE0290913E
:1026B000EF020E94230781E292E00E94F6056091FA
:1026C000F0027091F1028091F2029091F3020E9467
:1026D000230781E292E00E94F6056CED72E08EE73E
:1026E00094E00E944A0E60ED72E086E194E00E9460
:1026F0004A0E209709F489CF0E949101882309F49A
:1027000084CF0E94000081CF8BE092E00E94F6050A
:10271000CE010E940606FFCF0E94CE1308F481E08E
:102720000895E89409C097FB3EF4909580957095C4
:1027300061957F4F8F4F9F4F9923A9F0F92F96E90D
:10274000BB279395F695879577956795B795F11182
:10275000F8CFFAF4BB0F11F460FF1BC06F5F7F4F1F
:102760008F4F9F4F16C0882311F096E911C0772331
:1027700021F09EE8872F762F05C0662371F096E83A
:10278000862F70E060E02AF09A95660F771F881F09
:10279000DAF7880F9695879597F90895990F0008AD
:1027A000550FAA0BE0E8FEEF16161706E807F90723
:1027B000C0F012161306E407F50798F0621B730BBE
:1027C000840B950B39F40A2661F0232B242B252B3F
:1027D00021F408950A2609F4A140A6958FEF811DE2
:1027E000811D08950E9405140C9476140E946814AB
:1027F00038F00E946F1420F0952311F00C945F14B0
:102800000C94651411240C94AA140E94871470F37C
:10281000959FC1F3950F50E0551F629FF001729F85
:10282000BB27F00DB11D639FAA27F00DB11DAA1F94
:10283000649F6627B00DA11D661F829F2227B00DE1
:10284000A11D621F739FB00DA11D621F839FA00D6C
:10285000611D221F749F3327A00D611D231F849FBC
:10286000600D211D822F762F6A2F11249F57504013
:102870009AF0F1F088234AF0EE0FFF1FBB1F661F8E
:10288000771F881F91505040A9F79E3F510580F057
:102890000C945F140C94AA145F3FE4F3983ED4F3B5
:1028A000869577956795B795F795E7959F5FC1F7FB
:1028B000FE2B880F911D9695879597F9089597F9A6
:1028C0009F6780E870E060E008959FEF80EC0895D6
:1028D00000240A94161617061806090608950024FF
:1028E0000A9412161306140605060895092E039479
:1028F000000C11F4882352F0BB0F40F4BF2B11F4ED
:1029000060FF04C06F5F7F4F8F4F9F4F089557FD4B
:102910009058440F551F59F05F3F71F04795880F4D
:1029200097FB991F61F09F3F79F0879508951216E4
:1029300013061406551FF2CF4695F1DF08C0161690
:1029400017061806991FF1CF869571056105089441
:102950000895E894BB2766277727CB0197F9089558
:102960002F923F924F925F926F927F928F929F929F
:10297000AF92BF92CF92DF92EF92FF920F931F938D
:10298000CF93DF93CDB7DEB7CA1BDB0B0FB6F8943E
:10299000DEBF0FBECDBF09942A88398848885F847E
:1029A0006E847D848C849B84AA84B984C884DF80EF
:1029B000EE80FD800C811B81AA81B981CE0FD11DD3
:1029C0000FB6F894DEBF0FBECDBFED010895AA1B70
:1029D000BB1B51E107C0AA1FBB1FA617B70710F00A
:1029E000A61BB70B881F991F5A95A9F7809590953C
:1029F000BC01CD010895A1E21A2EAA1BBB1BFD014B
:102A00000DC0AA1FBB1FEE1FFF1FA217B307E407CD
:102A1000F50720F0A21BB30BE40BF50B661F771F25
:102A2000881F991F1A9469F7609570958095909505
:102A30009B01AC01BD01CF010895052E97FB1EF44B
:102A400000940E94341557FD07D00E94FB1407FC28
:102A500003D04EF40C943415509540953095219543
:102A60003F4F4F4F5F4F08959095809570956195BA
:102A70007F4F8F4F9F4F0895EE0FFF1F0590F491EA
:102A8000E02D09945058BB27AA270E945A150C9490
:102A900076140E94681438F00E946F1420F039F404
:102AA0009F3F19F426F40C9465140EF4E095E7FBAF
:102AB0000C945F14E92F0E94871458F3BA17620729
:102AC00073078407950720F079F4A6F50C94A914F0
:102AD0000EF4E0950B2EBA2FA02D0B01B901900139
:102AE0000C01CA01A0011124FF27591B99F0593F7D
:102AF00050F4503E68F11A16F040A22F232F342FC5
:102B00004427585FF3CF469537952795A795F04012
:102B10005395C9F77EF41F16BA0B620B730B840B27
:102B2000BAF09150A1F0FF0FBB1F661F771F881FDF
:102B3000C2F70EC0BA0F621F731F841F48F4879537
:102B400077956795B795F7959E3F08F0B0CF939529
:102B5000880F08F09927EE0F9795879508950E94A2
:102B6000C3150C9476140E946F1458F00E946814D8
:102B700040F029F45F3F29F00C945F1451110C943C
:102B8000AA140C9465140E94871468F39923B1F376
:102B9000552391F3951B550BBB27AA276217730783
:102BA000840738F09F5F5F4F220F331F441FAA1F17
:102BB000A9F335D00E2E3AF0E0E832D091505040D3
:102BC000E695001CCAF72BD0FE2F29D0660F771F81
:102BD000881FBB1F261737074807AB07B0E809F067
:102BE000BB0B802DBF01FF2793585F4F3AF09E3FEC
:102BF000510578F00C945F140C94AA145F3FE4F331
:102C0000983ED4F3869577956795B795F7959F5F2E
:102C1000C9F7880F911D9695879597F90895E1E07A
:102C2000660F771F881FBB1F621773078407BA07D9
:102C300020F0621B730B840BBA0BEE1F88F7E09534
:102C400008950E948F1488F09F5798F0B92F992704
:102C5000B751B0F0E1F0660F771F881F991F1AF087
:102C6000BA95C9F714C0B13091F00E94A914B1E02F
:102C700008950C94A914672F782F8827B85F39F02E
:102C8000B93FCCF3869577956795B395D9F73EF420
:102C900090958095709561957F4F8F4F9F4F0895C8
:102CA0000E94CE1308F48FEF08950E94CE13880B74
:102CB000990B08950F931F93CF93DF938230910563
:102CC00010F482E090E0E091DC04F091DD0430E06B
:102CD00020E0B0E0A0E0309799F42115310509F427
:102CE0004AC0281B390B24303105D8F58A819B81D5
:102CF0006115710589F1FB0193838283FE0111C087
:102D0000408151810281138148175907E0F048172B
:102D1000590799F4109761F012960C931297139635
:102D20001C933296CF01DF91CF911F910F9108959F
:102D30000093DC041093DD04F4CF2115310551F02C
:102D40004217530738F0A901DB019A01BD01DF01E9
:102D5000F801C1CFEF01F9CF9093DD048093DC043B
:102D6000CDCFFE01E20FF31F8193919322503109E1
:102D700039832883D7CF2091DA043091DB04232BC9
:102D800041F420910201309103013093DB04209340
:102D9000DA0420910001309101012115310541F43F
:102DA0002DB73EB74091040150910501241B350B0E
:102DB000E091DA04F091DB04E217F307A0F42E1B94
:102DC0003F0B2817390778F0AC014E5F5F4F24178F
:102DD000350748F04E0F5F1F5093DB044093DA0431
:102DE000819391939FCFF0E0E0E09CCFCF93DF936E
:102DF0000097E9F0FC01329713821282A091DC0463
:102E0000B091DD04ED0130E020E01097A1F42081C5
:102E10003181820F931F2091DA043091DB0428174F
:102E2000390709F061C0F093DB04E093DA04DF9125
:102E3000CF910895EA01CE17DF07E8F54A815B815B
:102E40009E0141155105B1F7E901FB83EA834991E0
:102E50005991C40FD51FEC17FD0761F48081918152
:102E60000296840F951FE90199838883828193815B
:102E70009B838A83F0E0E0E012968D919C911397FA
:102E80000097B9F52D913C911197CD010296820FD3
:102E9000931F2091DA043091DB042817390739F6A3
:102EA000309751F51092DD041092DC04B093DB04EE
:102EB000A093DA04BCCFD383C28340815181840FB5
:102EC000951FC817D90761F44E5F5F4F88819981BC
:102ED000480F591F518340838A819B81938382834A
:102EE0002115310509F0B0CFF093DD04E093DC0447
:102EF0009ECFFD01DC01C0CF13821282D7CFB0E09C
:102F0000A0E0E5E8F7E10C94B2148C01009751F4CD
:102F1000CB010E945A168C01C801CDB7DEB7E0E1A3
:102F20000C94CE14FC01E60FF71F9C0122503109CE
:102F3000E217F30708F49DC0D901CD91DC911197F8
:102F4000C617D70798F0C530D10530F3CE010497E6
:102F50008617970708F3C61BD70B2297C193D19307
:102F60006D937C93CF010E94F616D6CF5B01AC1A0D
:102F7000BD0A4C018C0E9D1EA091DC04B091DD04B5
:102F8000512C412CF12CE12C109731F58091DA0471
:102F90009091DB048815990509F05CC04616570628
:102FA00008F058C08091000190910101009741F410
:102FB0008DB79EB74091040150910501841B950B7C
:102FC000E817F90708F055C0F093DB04E093DA0442
:102FD000F90171836083A0CF8D919C911197129616
:102FE0006C90129713967C901397A815B90559F514
:102FF0006C0142E0C40ED11CCA14DB0420F1AC0108
:103000004A195B09DA011296159780F06282738281
:1030100051834083D9016D937C93E114F10471F0E5
:10302000D7011396FC93EE93129776CF22968C0FCE
:103030009D1FF90191838083F301EFCFF093DD04AD
:10304000E093DC0469CF4816590608F42C017D0191
:10305000D3019ACFCB010E945A167C01009749F008
:10306000AE01B8010E943C18C8010E94F616870103
:1030700053CF10E000E050CFFB01DC0102C0019013
:103080000D9241505040D8F70895FB01DC010190AA
:0C3090000D920020E1F70895F894FFCFA6
:10309C000000DE04800000000000C701270154017D
:1030AC0014028501630177010000000061053405FD
:1030BC0090050A052D051A050B0500000000930567
:1030CC00CB0D010D4D0A530E4A0E980598059F0520
:1030DC00AE03F60399056E079805940596059405BD
:1030EC00170E390E280E0D0A006E616E00696E66A1
:1030FC00006F7666004D50552D3638383600496EC7
:10310C0076656E53656E7365004D5055363838369E
:10311C00004572726F7220696E697469616C697AAC
:10312C00696E6720494D553A200046617374494DCC
:10313C00552063616C6962726174696F6E20262020
:10314C0064617461206578616D706C65004B6565B8
:10315C007020494D55206C6576656C2E0043616C72
:10316C006962726174696F6E20646F6E65210041D3
:10317C006363656C2062696173657320582F592FE6
:10318C005A3A20002C20004779726F2062696173D3
:10319C00657320582F592F5A3A20004572726F725E
:1031AC002053657474696E672072616E67653A208E
:0431BC000009000006
:00000001FF
