:100000000C9463000C948B000C948B000C948B006C
:100010000C948B000C948B000C948B000C948B0034
:100020000C948B000C948B000C948B000C948B0024
:100030000C948B000C948B000C948B000C948B0014
:100040000C9413060C948B000C9483060C945D06A0
:100050000C948B000C948B000C948B000C948B00F4
:100060000C948B000C948B000000000024002700EF
:100070002A0000000000250028002B0000000000DE
:1000800023002600290004040404040404040202DA
:100090000202020203030303030301020408102007
:1000A0004080010204081020010204081020000012
:1000B0000008000201000003040700000000000027
:1000C00000007808A50811241FBECFEFD8E0DEBFDE
:1000D000CDBF11E0A0E0B1E0EEE1F7E102C0059094
:1000E0000D92AC33B107D9F721E0ACE3B1E001C028
:1000F0001D92A43FB207E1F710E0C2E6D0E004C0D1
:100100002197FE010E944B09C136D107C9F70E9411
:10011000B5060C94820B0C940000833081F028F417
:10012000813099F08230A9F008958730A9F08830A5
:10013000C9F08430B1F4809180008F7D03C080913C
:1001400080008F7780938000089584B58F7784BD79
:10015000089584B58F7DFBCF8091B0008F77809319
:10016000B00008958091B0008F7DF9CFCF93DF93D9
:10017000282F30E0F901E255FF4F8491F901E6564E
:10018000FF4FD491F901EA57FF4FC491CC23A1F05E
:1001900081110E948D00EC2FF0E0EE0FFF1FE4585C
:1001A000FF4FA591B491EC91ED2381E090E009F42B
:1001B00080E0DF91CF91089580E090E0FACF1F9327
:1001C000CF93DF93282F30E0F901E255FF4F849160
:1001D000F901E656FF4FD491F901EA57FF4FC49158
:1001E000CC23A9F0162F81110E948D00EC2FF0E096
:1001F000EE0FFF1FEE58FF4FA591B4918FB7F89403
:10020000EC91111108C0D095DE23DC938FBFDF91F4
:10021000CF911F910895DE2BF8CF1F93CF93DF93DB
:10022000C82F162F882339F0809115018230A9F547
:10023000D0E0C130A1F4809113018F3F59F00E94AA
:10024000B600019739F460E0809113010E94DF004D
:10025000D1E001C0D0E0809115018230D1F4CD7F92
:10026000C1F4809114018F3FA1F00E94B600019764
:1002700081F460E0809114010E94DF00112369F095
:1002800080911601882369F08BEB92E10197F1F7D9
:1002900004C0112311F0D111F3CFDF91CF911F9141
:1002A00008958BE193E0F2CFCF93DF9390E0FC01D0
:1002B000E656FF4F24918A579F4FFC018491882373
:1002C000D1F090E0880F991FFC01E859FF4FA591EC
:1002D000B491FC01EE58FF4FC591D49161110EC04D
:1002E0009FB7F8948C91E22FE0958E238C93288110
:1002F000E223E8839FBFDF91CF9108958FB7F894F1
:10030000EC91E22BEC938FBFF6CF3FB7F89480913E
:100310004F0190915001A0915101B091520126B529
:10032000A89B05C02F3F19F00196A11DB11D3FBF2D
:10033000BA2FA92F982F8827BC01CD01620F711DFC
:10034000811D911D42E0660F771F881F991F4A95F6
:10035000D1F708957F928F929F92AF92BF92CF92E2
:10036000DF92EF92FF920F931F93CF93DF938C0155
:10037000C62FD42F20910B0130910C01211531058E
:1003800039F080910A01813089F0823009F482C00D
:10039000DF91CF911F910F91FF90EF90DF90CF9061
:1003A000BF90AF909F908F907F900895F62E809190
:1003B0000D01F81618F5CF2CD12C809110019091D9
:1003C0001101F601EE0FFF1FE00FF11F91838083F3
:1003D000E0910B01F0910C01EC0DFD1D61E08081BD
:1003E0000E945401E0910B01F0910C01EC0DFD1DF8
:1003F00061E080810E94DF00FD0ED9CF83E290E0B2
:100400000197F1F7F8940E9485014B01FC2E809131
:100410000D01F81660F4E0910B01F0910C01EF0D65
:10042000F11D60E080810E945401FD0EF0CF7894B0
:10043000D12CC12C8091100190911101C816D906C0
:1004400008F0A6CFF8940E9485016B01C818D9085E
:100450007C2E80910D017816D8F4E72CF12CE091D8
:100460000B01F0910C01EE0DFF1D80810E94B60082
:10047000892B61F4EE0CFF1CF801EE0DFF1D80814D
:100480009181C816D90610F4D182C0827D0EE1CFC9
:100490007894D0CF862F90910D01891750F4E82FD2
:1004A000F0E0EE0FFF1FE00FF11F118210828D0FA1
:1004B000F2CF40E080911201481768F59C2F80919F
:1004C0000D01981730F5E92FF0E0D901AE0FBF1FED
:1004D0008C918E3008F08E508770806480937C0001
:1004E00080917A00806480937A0080917A0086FD02
:1004F000FCCFA0917800B0917900EE0FFF1FE00FC4
:10050000F11F608171816A0F7B1F718360839D0F72
:10051000D6CF4F5FCFCF80910D01C81708F038CFED
:10052000EC2FF0E0EE0FFF1FE00FF11F60911201C2
:1005300070E0CB019595879520813181820F931FC3
:100540000E94E40871836083CD0FE5CFAF92BF9224
:10055000CF92DF92EF92FF920F931F93CF93DF938F
:100560006C017B018B01040F151FEB015E01AE18BE
:10057000BF08C017D10759F06991D601ED91FC91E0
:100580000190F081E02DC6010995892B79F7C5010D
:10059000DF91CF911F910F91FF90EF90DF90CF905F
:1005A000BF90AF900895FC01538D448D252F30E00E
:1005B000842F90E0821B930B541710F0CF96089570
:1005C00001970895FC01918D828D981761F0A28D9D
:1005D000AE0FBF2FB11D5D968C91928D9F5F9F7363
:1005E000928F90E008958FEF9FEF0895FC01918D19
:1005F000828D981731F0828DE80FF11D858D90E086
:1006000008958FEF9FEF0895FC01918D228D892F22
:1006100090E0805C9F4F821B91098F73992708950A
:1006200083E591E00E94040321E0892B09F420E096
:10063000822F089580E090E0892B29F00E9410031A
:1006400081110C9400000895FC01A48DA80FB92F0E
:10065000B11DA35ABF4F2C91848D90E001968F73EA
:100660009927848FA689B7892C93A089B1898C9109
:10067000837080648C93938D848D981306C0028858
:10068000F389E02D80818F7D80830895EF92FF9222
:100690000F931F93CF93DF93EC0181E0888F9B8DA5
:1006A0008C8D98131AC0E889F989808185FF15C05F
:1006B0009FB7F894EE89FF896083E889F989808182
:1006C0008370806480839FBF81E090E0DF91CF9151
:1006D0001F910F91FF90EF900895F62E0B8D10E073
:1006E0000F5F1F4F0F731127E02E8C8D8E110CC0E2
:1006F0000FB607FCFACFE889F989808185FFF5CF2D
:10070000CE010E942403F1CFEB8DEC0FFD2FF11DE4
:10071000E35AFF4FF0829FB7F8940B8FEA89FB8969
:1007200080818062CFCFCF93DF93EC01888D8823C7
:10073000B9F0AA89BB89E889F9898C9185FD03C044
:10074000808186FD0DC00FB607FCF7CF8C9185FF29
:10075000F2CF808185FFEDCFCE010E942403E9CF47
:10076000DF91CF910895CF92DF92EF92FF92CF93D6
:10077000DF93C82F80911601882369F08C2F0E9487
:10078000B600019741F460E08C2F0E94DF008BEBF4
:1007900092E10197F1F761E08C2F0E94DF000E9447
:1007A00085016B01809116018823A9F080911701C2
:1007B000882389F0F894D0E080911701D81750F47D
:1007C00060E08C2F0E94DF0061E08C2F0E94DF0030
:1007D000DF5FF2CF7894C601DF91CF91FF90EF9069
:1007E000DF90CF9008950F931F93CF93DF93C82F7F
:1007F000882359F180911501823029F1D0E0809150
:1008000015018230D1F5CD7FC1F5809114018F3F64
:10081000A1F190911601992361F1809114010E9438
:10082000B3038C0180911601882371F1C3E2D0E0FB
:100830000E948501601B710B6C32714000F5CE0186
:100840000197F1F7F5CFC130C9F6809113018F3FC1
:10085000A9F290911601992339F0809113010E9419
:10086000B3038C01D1E0CBCF0E94B600892BA9F352
:10087000C5CF0E94B600892B81F2D111D3CFDF9171
:10088000CF911F910F9108958BE193E00197F1F7BC
:10089000F6CF8F929F92AF92BF920F931F93CF93F9
:1008A000DF93CDB7DEB7A1970FB6F894DEBF0FBECA
:1008B000CDBF19A2423008F44AE08E010F5D1F4FF0
:1008C000842E912CB12CA12CA50194010E94F80832
:1008D000E62FB901CA01EA3044F5E05DD801EE9394
:1008E0008D01232B242B252B79F790E080E01097A6
:1008F00069F0FD0101900020E9F73197AF014A1B33
:100900005B0BBD0183E591E00E94A602A1960FB6A4
:10091000F894DEBF0FBECDBFDF91CF911F910F9135
:10092000BF90AF909F908F900895E95CD7CF42E041
:1009300050E069E371E083E591E00C94A6028F92A8
:100940009F92AF92BF92CF92DF92EF92FF920F935E
:100950001F93CF93DF93CDB7DEB7C85FD1090FB632
:10096000F894DEBF0FBECDBF8C01D62EDC018C917A
:10097000811157C01396ED90FC9060910D0170E0CD
:10098000660F771FC7010E94850AF801948383834D
:10099000892BB9F4C7010E94FC09C850DF4F0FB67C
:1009A000F894DEBF0FBECDBFDF91CF911F910F91A5
:1009B000FF90EF90DF90CF90BF90AF909F908F907F
:1009C0000895E180F28060910D0170E0660F771F5D
:1009D000C7010E94850AAC01F8019283818390E0EF
:1009E00041155105B9F280910D019817B8F4292FDE
:1009F00030E0220F331FD8011396ED91FC91E20FE6
:100A0000F31F118210826091100170911101240F67
:100A1000351FF901718360839F5FE5CF81E0D801C5
:100A20008C93C12C43E2E42EF12CB1E0DB1638F0BC
:100A3000E2E0ED15D0F5F3E0DF1609F46DC061E0FA
:100A400080E00E940D0141E060E0CE0185549F4F9F
:100A50000E94AA01A0900D014E018FE3880E911C07
:100A6000FE01E358FF4F9E0125543F4FB12CAF01CB
:100A7000AB1409F4A1C0D9018D919D919D01CC20A9
:100A800009F492C0608171816817790708F48CC0FD
:100A9000D4016D917C918617970708F489C0B394AF
:100AA000B2E08B0E911C3296E3CF80E00E94F303FC
:100AB00041E060E0CE0185549F4F0E94AA0161E0B1
:100AC00080E00E940D01A2E0DA12C4CF41E060E0B4
:100AD000CE0101960E94AA0170910D012091100192
:100AE00030911101FE01E554FF4FDE01119660E0E7
:100AF000761709F4AFCF4D915D9180819181820F7E
:100B0000931F841B950B2817390708F44AC091835B
:100B100080836F5F3296ECCF60E082E00E940D012F
:100B20000E9485014B0181E00E94F3038091160130
:100B3000882359F00E94850168197909603B744047
:100B400020F4C7010197F1F7F5CF42E060E0CE0154
:100B500085549F4F0E94AA0160E081E00E940D0130
:100B60000E9485014B0182E00E94F30380911601EF
:100B7000882359F00E94850168197909603B744007
:100B800020F4C7010197F1F7F5CF42E061E0CE0113
:100B900085549F4F0E94AA0161E080E00E940D01F0
:100BA00059CF31832083B5CF91838083C11070CF1B
:100BB000D4018D939C9373CFC394EAE0CE1235CFCA
:100BC00020E080910D01281708F0E7CE822F90E0F9
:100BD000880F991FE1E0F0E0EC0FFD1FE80FF91F0F
:100BE00066AD77ADD8011396ED91FC91E80FF91F32
:100BF000A081B181A617B70710F471836083FA0151
:100C0000E80FF91F60817181D8011196ED91FC9177
:100C1000E80FF91F808191816817790710F47183BB
:100C200060832F5FCECF1F920F920FB60F921124C9
:100C30002F933F938F939F93AF93BF9380914B01DB
:100C400090914C01A0914D01B0914E0130914A011B
:100C500023E0230F2D3758F50196A11DB11D2093D8
:100C60004A0180934B0190934C01A0934D01B093A6
:100C70004E0180914F0190915001A0915101B0918E
:100C800052010196A11DB11D80934F019093500117
:100C9000A0935101B0935201BF91AF919F918F9159
:100CA0003F912F910F900FBE0F901F90189526E83F
:100CB000230F0296A11DB11DD2CF1F920F920FB626
:100CC0000F9211242F933F934F935F936F937F93D2
:100CD0008F939F93AF93BF93EF93FF9383E591E03F
:100CE0000E942403FF91EF91BF91AF919F918F914B
:100CF0007F916F915F914F913F912F910F900FBE18
:100D00000F901F9018951F920F920FB60F921124FB
:100D10002F938F939F93EF93FF93E0916301F09153
:100D200064018081E0916901F0916A0182FD1BC03C
:100D3000908180916C018F5F8F7320916D0182177C
:100D400041F0E0916C01F0E0ED5AFE4F958F8093F9
:100D50006C01FF91EF919F918F912F910F900FBE9A
:100D60000F901F9018958081F4CF789484B582609D
:100D700084BD84B5816084BD85B5826085BD85B53F
:100D8000816085BD80916E00816080936E001092BD
:100D90008100809181008260809381008091810038
:100DA00081608093810080918000816080938000C9
:100DB0008091B10084608093B1008091B000816027
:100DC0008093B00080917A00846080937A00809153
:100DD0007A00826080937A0080917A0081608093AB
:100DE0007A0080917A00806880937A001092C10026
:100DF000E0916301F091640192E09083E0915F01E2
:100E0000F09160011082E0916101F09162018FEC3C
:100E1000808310926B01E0916701F091680186E098
:100E20008083E0916501F09166018081806180831B
:100E3000E0916501F0916601808188608083E09196
:100E40006501F0916601808180688083E091650191
:100E5000F091660180818F7D808390930A018FEFEE
:100E600093E09093110180931001C0910B01D091F8
:100E70000C0167E070E0CE010E94850A90930C019E
:100E800080930B01892B09F0C6C0CE010E94FC099A
:100E900061E08DE00E94540161E08DE00E94DF007E
:100EA000C8EC61E080E091E00E949F04C150C9F766
:100EB00060E08DE00E94DF00D0E0C0E0E091010141
:100EC000F0910201EC0FFD1F6081718190E080E0E4
:100ED0004AE00E94490460E283E591E00E944603F3
:100EE0002296CE30D10551F70E949704D0E0C0E0A1
:100EF000E0910301F0910401EC0FFD1F608171810D
:100F000090E080E04AE00E94490460E283E591E0DD
:100F10000E9446032296CE30D10551F70E949704D5
:100F20000E9497040E9485014B015C0128EEC22EAD
:100F300023E0D22EE12CF12C0E9485016819790959
:100F40008A099B09683E734081059105A8F321E059
:100F5000C21AD108E108F10888EE880E83E0981ED5
:100F6000A11CB11CC114D104E104F10429F78AE4E5
:100F7000C82E81E0D82E90E0A92E90E0B92E809165
:100F80000001882309F45FC080E00E94F30341E080
:100F900060E08CE391E00E94AA0161E080E00E94A1
:100FA0000D0180900D01CCE3D1E0E0900301F090C1
:100FB00004010091010110910201912C891409F49E
:100FC00042C0D701ED91FD917D01D8018D919D9198
:100FD0008D01E81BF90BC9F02881398150E040E010
:100FE000281B390B41095109A8EEB3E00E944009C2
:100FF0009F0150E040E00E941A09293EB3E03B0700
:1010000014F028EE33E037FF02C030E020E02993EF
:1010100039939394D3CFA2E3B1E090E080E02D9197
:10102000E0910B01F0910C01E80FF91F208301966C
:1010300087309105A1F787E080930D0110920001A0
:101040001092050125CF30900D01CCE3D1E07E0157
:1010500010E000E0912C50E040E0412C512C320196
:10106000812C3914D9F0D701ED91FD917D01E93C36
:10107000F10588F4E333F10550F09F01D8010E9497
:101080003909460E571E681E791E4E0F5F1F939436
:1010900008511C4FE6CF88248394EFCF882059F065
:1010A0009A0150E040E0C301B2010E94F808309379
:1010B0001901209318016991799190E080E04AE04C
:1010C0000E94490469E083E591E00E944603CC1642
:1010D000DD0689F70E949704A114B10409F44FCFEB
:1010E0000E941003882309F44ACF0E94000047CFD2
:1010F000E3E5F1E01382128288EE93E0A0E0B0E035
:1011000084839583A683B78384E291E0918380836F
:1011100085EC90E09587848784EC90E097878687BC
:1011200080EC90E0918B808B81EC90E0938B828BB4
:1011300082EC90E0958B848B86EC90E0978B868B8D
:10114000118E128E138E148E0895809113018F3F8D
:1011500031F060E00E9454018FEF80931301809181
:1011600014018F3F31F060E00E9454018FEF8093B3
:1011700014011092150180910B0190910C010097C0
:1011800011F00E94FC0980910301909104010097E5
:1011900011F00E94FC0980910801909109010097CB
:1011A00011F00E94FC0980910101909102010097C9
:1011B00011F00E94FC0980910601909107010097AF
:1011C00011F00C94FC090895AA1BBB1B51E107C048
:1011D000AA1FBB1FA617B70710F0A61BB70B881FC7
:1011E000991F5A95A9F780959095BC01CD01089556
:1011F000A1E21A2EAA1BBB1BFD010DC0AA1FBB1F1B
:10120000EE1FFF1FA217B307E407F50720F0A21B8C
:10121000B30BE40BF50B661F771F881F991F1A94F9
:1012200069F760957095809590959B01AC01BD0123
:10123000CF010895052E97FB1EF400940E943109FA
:1012400057FD07D00E94F80807FC03D04EF40C9419
:10125000310950954095309521953F4F4F4F5F4F45
:10126000089590958095709561957F4F8F4F9F4F12
:1012700008950E945109B7FF0895821B930B0895AA
:101280000E945109A59F900DB49F900DA49F800DC1
:10129000911D11240895EE0FFF1F0590F491E02D8C
:1012A0000994A29FB001B39FC001A39F700D811D3F
:1012B0001124911DB29F700D811D1124911D08955F
:1012C0000F931F93CF93DF938230910510F482E048
:1012D00090E0E091F201F091F30130E020E0B0E025
:1012E000A0E0309799F42115310509F44AC0281B74
:1012F000390B24303105D8F58A819B816115710540
:1013000089F1FB0193838283FE0111C040815181E9
:101310000281138148175907E0F04817590799F4DB
:10132000109761F012960C93129713961C933296B5
:10133000CF01DF91CF911F910F9108950093F2019A
:101340001093F301F4CF2115310551F042175307E3
:1013500038F0A901DB019A01BD01DF01F801C1CF1D
:10136000EF01F9CF9093F3018093F201CDCFFE010D
:10137000E20FF31F8193919322503109398328831F
:10138000D7CF2091F0013091F101232B41F420912E
:101390001C0130911D013093F1012093F001209147
:1013A0001A0130911B012115310541F42DB73EB7CB
:1013B00040911E0150911F01241B350BE091F0015B
:1013C000F091F101E217F307A0F42E1B3F0B281751
:1013D000390778F0AC014E5F5F4F2417350748F0AE
:1013E0004E0F5F1F5093F1014093F0018193919351
:1013F0009FCFF0E0E0E09CCFCF93DF930097E9F040
:10140000FC01329713821282A091F201B091F30194
:10141000ED0130E020E01097A1F420813181820FAE
:10142000931F2091F0013091F1012817390709F03D
:1014300061C0F093F101E093F001DF91CF91089545
:10144000EA01CE17DF07E8F54A815B819E0141156D
:101450005105B1F7E901FB83EA8349915991C40F22
:10146000D51FEC17FD0761F4808191810296840FEE
:10147000951FE90199838883828193819B838A8365
:10148000F0E0E0E012968D919C9113970097B9F5EA
:101490002D913C911197CD010296820F931F2091BF
:1014A000F0013091F1012817390739F6309751F5DD
:1014B0001092F3011092F201B093F101A093F001A8
:1014C000BCCFD383C28340815181840F951FC8173D
:1014D000D90761F44E5F5F4F88819981480F591F8A
:1014E000518340838A819B819383828321153105B7
:1014F00009F0B0CFF093F301E093F2019ECFFD012C
:10150000DC01C0CF13821282D7CFB0E0A0E0EBE8BD
:10151000FAE00C944D0B8C01009751F4CB010E9422
:1015200060098C01C801CDB7DEB7E0E10C94690B0E
:10153000FC01E60FF71F9C0122503109E217F30767
:1015400008F49DC0D901CD91DC911197C617D7073A
:1015500098F0C530D10530F3CE0104978617970770
:1015600008F3C61BD70B2297C193D1936D937C933D
:10157000CF010E94FC09D6CF5B01AC1ABD0A4C0119
:101580008C0E9D1EA091F201B091F301512C412CC3
:10159000F12CE12C109731F58091F0019091F1013F
:1015A0008815990509F05CC04616570608F058C022
:1015B00080911A0190911B01009741F48DB79EB75D
:1015C00040911E0150911F01841B950BE817F907EC
:1015D00008F055C0F093F101E093F001F901718337
:1015E0006083A0CF8D919C91119712966C90129769
:1015F00013967C901397A815B90559F56C0142E034
:10160000C40ED11CCA14DB0420F1AC014A195B09D9
:10161000DA011296159780F06282738251834083BB
:10162000D9016D937C93E114F10471F0D701139605
:10163000FC93EE93129776CF22968C0F9D1FF901A3
:1016400091838083F301EFCFF093F301E093F201F4
:1016500069CF4816590608F42C017D01D3019ACFB1
:10166000CB010E9460097C01009749F0AE01B801EE
:101670000E94420BC8010E94FC09870153CF10E071
:1016800000E050CFFB01DC0102C001900D924150FF
:101690005040D8F708952F923F924F925F926F92E9
:1016A0007F928F929F92AF92BF92CF92DF92EF92F2
:1016B000FF920F931F93CF93DF93CDB7DEB7CA1B73
:1016C000DB0B0FB6F894DEBF0FBECDBF09942A889E
:1016D000398848885F846E847D848C849B84AA8446
:1016E000B984C884DF80EE80FD800C811B81AA81D3
:1016F000B981CE0FD11D0FB6F894DEBF0FBECDBF9E
:10170000ED01089510E0C2E6D0E004C0FE010E94A1
:0E1710004B092196C336D107C9F7F894FFCFD5
:10171E000000000000000000000000000000C409EE
:10172E00C40904FFFF00010000000000F401800066
:10173E00000000004603A602D30293030403E20254
:0C174E00F6020E0F10111213140D0A0009
:00000001FF
