:100000000C9463000C948B000C948B000C948B006C
:100010000C948B000C948B000C948B000C948B0034
:100020000C948B000C948B000C948B000C948B0024
:100030000C948B000C948B000C948B000C948B0014
:100040000C942E030C948B000C949E030C94780358
:100050000C948B000C948B000C948B000C948B00F4
:100060000C94D0030C948B000000000023002600A9
:10007000290000000000240027002A0000000000E2
:10008000250028002B0004040404040404040202D4
:100090000202020203030303030301020408102007
:1000A0004080010204081020010204081020000012
:1000B0000008000201000003040700000000000027
:1000C0000000EF04400711241FBECFEFD8E0DEBFD1
:1000D000CDBF11E0A0E0B1E0E4EDF3E102C0059096
:1000E0000D92AE34B107D9F722E0AEE4B1E001C021
:1000F0001D92AA3AB207E1F710E0C2E6D0E004C0D0
:100100002197FE010E94B507C136D107C9F70E94A9
:1001100028050C94DD090C940000833081F028F44C
:10012000813099F08230A9F008958730A9F08830A5
:10013000C9F08430B1F4809180008F7D03C080913C
:1001400080008F7780938000089584B58F7784BD79
:10015000089584B58F7DFBCF8091B0008F77809319
:10016000B00008958091B0008F7DF9CF1F93CF9399
:10017000DF93282F30E0F901E255FF4F8491F90118
:10018000E656FF4FD491F901EA57FF4FC491CC23B3
:10019000A9F0162F81110E948D00EC2FF0E0EE0FD8
:1001A000FF1FE458FF4FA591B4918FB7F894EC91DD
:1001B000111108C0D095DE23DC938FBFDF91CF9162
:1001C0001F910895DE2BF8CFCF93DF9390E0FC01D1
:1001D000E656FF4F24918A579F4FFC018491882354
:1001E000D1F090E0880F991FFC01EE58FF4FA591C8
:1001F000B491FC01E458FF4FC591D49161110EC038
:100200009FB7F8948C91E22FE0958E238C932881F0
:10021000E223E8839FBFDF91CF9108958FB7F894D1
:10022000EC91E22BEC938FBFF6CF3FB7F89480911F
:10023000F9019091FA01A091FB01B091FC0126B562
:10024000A89B05C02F3F19F00196A11DB11D3FBF0E
:10025000BA2FA92F982F8827BC01CD01620F711DDD
:10026000811D911D42E0660F771F881F991F4A95D7
:10027000D1F7089508950895AF92BF92CF92DF927B
:10028000EF92FF920F931F93CF93DF936C017B014B
:100290008B01040F151FEB015E01AE18BF08C017DC
:1002A000D10759F06991D601ED91FC910190F0814F
:1002B000E02DC6010995892B79F7C501DF91CF9112
:1002C0001F910F91FF90EF90DF90CF90BF90AF9074
:1002D0000895FC01538D448D252F30E0842F90E04C
:1002E000821B930B541710F0CF9608950197089531
:1002F000FC01918D828D981761F0A28DAE0FBF2FFA
:10030000B11D5D968C91928D9F5F9F73928F90E04F
:1003100008958FEF9FEF0895FC01918D828D9817BE
:1003200031F0828DE80FF11D858D90E008958FEFFB
:100330009FEF0895FC01918D228D892F90E0805CC4
:100340009F4F821B91098F73992708958DEF91E03C
:100350000E949A0121E0892B09F420E0822F089560
:1003600080E090E0892B29F00E94A60181110C9475
:1003700000000895FC01A48DA80FB92FB11DA35A48
:10038000BF4F2C91848D90E001968F739927848FB5
:10039000A689B7892C93A089B1898C9183708064D8
:1003A0008C93938D848D981306C00288F389E02D79
:1003B00080818F7D80830895EF92FF920F931F932A
:1003C000CF93DF93EC0181E0888F9B8D8C8D981308
:1003D0001AC0E889F989808185FF15C09FB7F89414
:1003E000EE89FF896083E889F98980818370806460
:1003F00080839FBF81E090E0DF91CF911F910F91AB
:10040000FF90EF900895F62E0B8D10E00F5F1F4FB9
:100410000F731127E02E8C8D8E110CC00FB607FCC8
:10042000FACFE889F989808185FFF5CFCE010E9456
:10043000BA01F1CFEB8DEC0FFD2FF11DE35AFF4F09
:10044000F0829FB7F8940B8FEA89FB8980818062E4
:10045000CFCFCF93DF93EC01888D8823B9F0AA89A1
:10046000BB89E889F9898C9185FD03C0808186FD6F
:100470000DC00FB607FCF7CF8C9185FFF2CF8081BE
:1004800085FFEDCFCE010E94BA01E9CFDF91CF9178
:10049000089520919401260F3327331F213231050F
:1004A000ECF42091B801FC0190E080E0243069F088
:1004B00082E00895A09194012191AC014C585E4FC7
:1004C000A40FB52FB11D2C930196861798F3809138
:1004D0009401680F6093940180E0089581E008958D
:1004E0001092B80181E08093BA011092B90161E0E5
:1004F00082E10E94B60061E083E10E94B600E9EB70
:10050000F0E080818E7F808380818D7F808388E48E
:100510008093B80085E48093BC0008950895E0912D
:10052000E5018091E401E81730F4F0E0E25BFE4F72
:10053000808190E008958FEF9FEF08959091E501FD
:100540008091E4012FEF3FEF981748F4E92FF0E096
:10055000E25BFE4F208130E09F5F9093E501C9018F
:1005600008958091E4019091E501891B990B08950C
:10057000CF93DF93CB01EA01642F0E944902CE01A1
:10058000DF91CF910895CF93DF931F92CDB7DEB760
:10059000698361E0CE0101960E94490281E090E00A
:1005A0000F90DF91CF91089590E080E00895CF9370
:1005B000DF9385ED8093BC00809170019091710173
:1005C000A0917201B09173010796A11DB11D23E0A6
:1005D000B695A795979587952A95D1F72091BC0058
:1005E00024FD03C01092B80136C0409170015091B3
:1005F00071016091720170917301452B462B472B5D
:1006000069F30097A105B10541F02AE22A95F1F7B7
:1006100000C00197A109B109E1CF80916F0191E07C
:1006200090936E018823B9F0C091B800D091BA00C0
:100630008091BC008A7B8093BC0060E082E10E94D4
:10064000B60060E083E10E94B6000E947002D09381
:10065000BA00C093B800DF91CF9108951F920F9216
:100660000FB60F9211242F933F938F939F93AF93C5
:10067000BF938091F5019091F601A091F701B0919F
:10068000F8013091F40123E0230F2D3758F501963E
:10069000A11DB11D2093F4018093F5019093F60103
:1006A000A093F701B093F8018091F9019091FA01BC
:1006B000A091FB01B091FC010196A11DB11D809399
:1006C000F9019093FA01A093FB01B093FC01BF9153
:1006D000AF919F918F913F912F910F900FBE0F90EF
:1006E0001F90189526E8230F0296A11DB11DD2CFA9
:1006F0001F920F920FB60F9211242F933F934F9397
:100700005F936F937F938F939F93AF93BF93EF9379
:10071000FF938DEF91E00E94BA01FF91EF91BF919D
:10072000AF919F918F917F916F915F914F913F9189
:100730002F910F900FBE0F901F9018951F920F9240
:100740000FB60F9211242F938F939F93EF93FF93E4
:10075000E0910D02F0910E028081E0911302F09180
:10076000140282FD1BC09081809116028F5F8F73EF
:1007700020911702821741F0E0911602F0E0E35059
:10078000FE4F958F80931602FF91EF919F918F916D
:100790002F910F900FBE0F901F9018958081F4CF6E
:1007A0001F920F920FB60F9211242F933F934F93E6
:1007B0005F936F937F938F939F93AF93BF93EF93C9
:1007C000FF938091B900887F803609F44AC0F0F524
:1007D000883209F4A7C018F5803109F49BC0B8F439
:1007E000882309F4F9C0883009F494C0FF91EF918F
:1007F000BF91AF919F918F917F916F915F914F9139
:100800003F912F910F900FBE0F901F901895883138
:1008100009F488C0803251F78093B70114C0803446
:1008200009F49DC040F48033B9F38833F9F680931E
:10083000B70185ECB0C0803509F485C0883509F46E
:1008400096C0883499F60E94D702D0CF883909F42F
:100850008CC038F5883729F050F4883611F080378D
:1008600029F683E08093B8011092B60157C088380A
:1008700009F47BC0803919F0803809F0B7CF809136
:10088000B601803208F071C0E091B60181E08E0FB0
:100890008093B6018091BB00F0E0EA56FE4F808362
:1008A0003DC0803B39F0E0F4803A09F479C0883AE1
:1008B00009F09CCF84E08093B801109295011092CA
:1008C0009401E091E001F091E1010995809194019A
:1008D00081110FC081E0809394011092740109C0CE
:1008E000803C09F4A6CF883C09F4A3CF883B09F0EB
:1008F0007DCFE091950181E08E0F80939501F0E02E
:10090000EC58FE4F80818093BB00909195018091BF
:10091000940129C08091DD018093BB0085EC809318
:10092000BC0064CF9091DC018091DB01981758F5F1
:10093000E091DC0181E08E0F8093DC01F0E0E55472
:10094000FE4F8081E9CFE091DC0181E08E0F809342
:10095000DC018091BB00F0E0E554FE4F8083909174
:10096000DC018091DB019817C8F285E8D8CFE091CF
:10097000DC0181E08E0F8093DC018091BB00F0E010
:10098000E554FE4F80838091BA0181115CCF81E0F4
:100990008093B90184EA8093BC001092B80126CFFD
:1009A00085EC8093BC001092B8018091B601803232
:1009B00030F4E091B601F0E0EA56FE4F108260910B
:1009C000B60170E0E091DE01F091DF0186E991E08F
:1009D00009951092B6010ACF1092B70134CFEDEF0E
:1009E000F1E01382128288EE93E0A0E0B0E084830D
:1009F0009583A683B7832BE231E03183208325ECF6
:100A000030E03587248724EC30E03787268720ECD8
:100A100030E0318B208B21EC30E0338B228B22ECC9
:100A200030E0358B248B26EC30E0378B268B118E13
:100A3000128E138E148EEAE9F2E0138212828483FE
:100A40009583A683B7838DE391E091838083089596
:100A5000CF93DF93CDB7DEB7A2970FB6F894DEBF82
:100A60000FBECDBF789484B5826084BD84B58160AB
:100A700084BD85B5826085BD85B5816085BD809169
:100A80006E00816080936E001092810080918100E1
:100A900082608093810080918100816080938100D9
:100AA000809180008160809380008091B10084609B
:100AB0008093B1008091B00081608093B0008091FC
:100AC0007A00846080937A0080917A0082608093BB
:100AD0007A0080917A00816080937A0080917A0018
:100AE000806880937A001092C1001092E501109204
:100AF000E4011092E3011092E2010E9470028AE385
:100B000091E09093E1018093E0018BE391E0909379
:100B1000DF018093DE018CE08093B800E0910D024C
:100B2000F0910E0292E09083E0910902F0910A02A6
:100B30001082E0910B02F0910C028FEC80831092F6
:100B40001502E0911102F091120286E08083E0919B
:100B50000F02F0911002808180618083E0910F028A
:100B6000F0911002808188608083E0910F02F09103
:100B70001002808180688083E0910F02F091100262
:100B800080818F7D808390930A018FEF93E0909313
:100B900011018093100100910B0110910C0167E08D
:100BA00070E0C8010E94E00890930C0180930B0153
:100BB000892B41F5C8010E945708EAE08E2E912C3E
:100BC000A12CB12CF0E02F2EF0E03F2E40910B0134
:100BD00050910C014115510509F408C180910A0199
:100BE000813041F1823009F001C1D0900D01E6EE73
:100BF000F1E0DF0180E0D81609F4AFC01D921D922C
:100C00008F5FF9CFA0E2B1E090E080E02D91E0911C
:100C10000B01F0910C01E80FF91F2083019687303A
:100C20009105A1F787E080930D01109200011092C9
:100C30000501C3CFF12C80910D01F81620F50F2D81
:100C400010E0F801EE0FFF1FEA51FE4F80911001F6
:100C50009091110191838083E0910B01F0910C013F
:100C6000E00FF11F61E080810E94E40080910B01A0
:100C700090910C01080F191F61E0D8018C910E941E
:100C8000B600F394D8CF83E290E00197F1F7F8949F
:100C90000E9415012B0110E080910D01181760F4DE
:100CA000E0910B01F0910C01E10FF11D60E08081FA
:100CB0000E94E4001F5FF0CF7894F12CE12C80912A
:100CC000100190911101E816F90608F08FC0F89410
:100CD0000E9415017B01E418F508C12C80910D01DB
:100CE000C81608F038C00C2D10E0E0910B01F0910F
:100CF0000C01E00FF11F208130E0F901E255FF4FB8
:100D00008491F901E656FF4FB491BAA3F901EA576D
:100D1000FF4FD490D1100CC0000F111FF801EA5101
:100D2000FE4F80819181E816F90690F0C394D6CFEA
:100D300081110E948D00ED2DF0E0EE0FFF1FE859AC
:100D4000FF4FA591B491EC91FAA1EF2329F3EECFD7
:100D5000F182E082EBCF7894B2CF70E02091120163
:100D60007217B0F030E07901F594E79440E0D416C2
:100D7000E9F1819191918F01025011098E0D9F1D12
:100D8000B9010E947F07D8016D937C934F5FEFCF2D
:100D900060E06D1548F5062F10E0CA01800F911F25
:100DA000DC018C918E3008F08E50877080648093C7
:100DB0007C0080917A00806480937A0080917A0030
:100DC00086FDFCCF2091780030917900D801AA0FE0
:100DD000BB1FAA51BE4F8D919C911197820F931FFB
:100DE0008D939C936F5FD5CF7F5FB8CF86EEE82E53
:100DF00081E0F82EF701219131917F0150E040E030
:100E000019A28E010F5D1F4FCA01B901A5019401FE
:100E10000E949307605DD8016E938D012115310505
:100E20004105510589F7109769F0FD0101900020F7
:100E3000E9F73197AF014A1B5B0BBD018DEF91E0E4
:100E40000E943C0169E08DEF91E00E94DC01E4EF3B
:100E5000F1E0EE15FF0571F642E050E06BE471E061
:100E60008DEF91E00E943C012114310409F4AECED3
:100E70000E94A601882309F4A9CE0E940000A6CEF4
:100E8000809113018F3F31F060E00E94E4008FEF0A
:100E900080931301809114018F3F31F060E00E9434
:100EA000E4008FEF809314011092150180910B01E3
:100EB00090910C01009711F00E9457088091030156
:100EC00090910401009711F00E9457088091080149
:100ED00090910901009711F00E945708809101013B
:100EE00090910201009711F00E945708809106012D
:100EF00090910701009711F00C9457080895AA1BD0
:100F0000BB1B51E107C0AA1FBB1FA617B70710F0F4
:100F1000A61BB70B881F991F5A95A9F78095909526
:100F2000BC01CD010895A1E21A2EAA1BBB1BFD0135
:100F30000DC0AA1FBB1FEE1FFF1FA217B307E407B8
:100F4000F50720F0A21BB30BE40BF50B661F771F10
:100F5000881F991F1A9469F76095709580959095F0
:100F60009B01AC01BD01CF010895EE0FFF1F05905D
:100F7000F491E02D09940F931F93CF93DF93823068
:100F8000910510F482E090E0E091A802F091A902AE
:100F900030E020E0B0E0A0E0309799F42115310571
:100FA00009F44AC0281B390B24303105D8F58A8151
:100FB0009B816115710589F1FB0193838283FE0199
:100FC00011C0408151810281138148175907E0F017
:100FD0004817590799F4109761F012960C931297DD
:100FE00013961C933296CF01DF91CF911F910F91F1
:100FF00008950093A8021093A902F4CF211531059A
:1010000051F04217530738F0A901DB019A01BD01E5
:10101000DF01F801C1CFEF01F9CF9093A9028093CE
:10102000A802CDCFFE01E20FF31F819391932250CE
:10103000310939832883D7CF2091A6023091A702A6
:10104000232B41F420911C0130911D013093A70204
:101050002093A60220911A0130911B012115310520
:1010600041F42DB73EB740911E0150911F01241B42
:10107000350BE091A602F091A702E217F307A0F466
:101080002E1B3F0B2817390778F0AC014E5F5F4FDE
:101090002417350748F04E0F5F1F5093A702409367
:1010A000A602819391939FCFF0E0E0E09CCFCF9395
:1010B000DF930097E9F0FC01329713821282A0912E
:1010C000A802B091A902ED0130E020E01097A1F450
:1010D00020813181820F931F2091A6023091A702B7
:1010E0002817390709F061C0F093A702E093A60220
:1010F000DF91CF910895EA01CE17DF07E8F54A8125
:101100005B819E0141155105B1F7E901FB83EA833B
:1011100049915991C40FD51FEC17FD0761F48081E7
:1011200091810296840F951FE901998388838281BA
:1011300093819B838A83F0E0E0E012968D919C91ED
:1011400013970097B9F52D913C911197CD01029617
:10115000820F931F2091A6023091A702281739070A
:1011600039F6309751F51092A9021092A802B09367
:10117000A702A093A602BCCFD383C2834081518132
:10118000840F951FC817D90761F44E5F5F4F8881A0
:101190009981480F591F518340838A819B81938392
:1011A00082832115310509F0B0CFF093A902E093B5
:1011B000A8029ECFFD01DC01C0CF13821282D7CFDF
:1011C000B0E0A0E0E6EEF8E00C94A8098C010097EE
:1011D00051F4CB010E94BB078C01C801CDB7DEB72B
:1011E000E0E10C94C409FC01E60FF71F9C012250BA
:1011F0003109E217F30708F49DC0D901CD91DC91C4
:101200001197C617D70798F0C530D10530F3CE0136
:1012100004978617970708F3C61BD70B2297C1932D
:10122000D1936D937C93CF010E945708D6CF5B0179
:10123000AC1ABD0A4C018C0E9D1EA091A802B09163
:10124000A902512C412CF12CE12C109731F5809101
:10125000A6029091A7028815990509F05CC0461670
:10126000570608F058C080911A0190911B01009711
:1012700041F48DB79EB740911E0150911F01841B10
:10128000950BE817F90708F055C0F093A702E09313
:10129000A602F90171836083A0CF8D919C91119773
:1012A00012966C90129713967C901397A815B90517
:1012B00059F56C0142E0C40ED11CCA14DB0420F1C4
:1012C000AC014A195B09DA011296159780F0628227
:1012D000738251834083D9016D937C93E114F104AF
:1012E00071F0D7011396FC93EE93129776CF229666
:1012F0008C0F9D1FF90191838083F301EFCFF09351
:10130000A902E093A80269CF4816590608F42C01F7
:101310007D01D3019ACFCB010E94BB077C010097CE
:1013200049F0AE01B8010E949D09C8010E9457080A
:10133000870153CF10E000E050CFFB01DC0102C079
:1013400001900D9241505040D8F708952F923F924E
:101350004F925F926F927F928F929F92AF92BF92C5
:10136000CF92DF92EF92FF920F931F93CF93DF9371
:10137000CDB7DEB7CA1BDB0B0FB6F894DEBF0FBECE
:10138000CDBF09942A88398848885F846E847D841B
:101390008C849B84AA84B984C884DF80EE80FD801D
:1013A0000C811B81AA81B981CE0FD11D0FB6F89493
:1013B000DEBF0FBECDBFED01089510E0C2E6D0E064
:1013C00004C0FE010E94B5072196C336D107C9F7B4
:0413D000F894FFCFBF
:1013D4000000000000000000000000000000C4093C
:1013E400C40904FFFF00010000000000AA028000FD
:1013F4000E0F101112131400000000DC013C0169EF
:101404000129029A0178018C0100000000C302B88E
:0E14140002D4028E02B1029E028F020D0A0067
:00000001FF
