:100000000C9458000C9480000C9480000C94800098
:100010000C9480000C9480000C9480000C94800060
:100020000C9480000C9480000C9480000C94800050
:100030000C9480000C9480000C9480000C94800040
:100040000C94620E0C9480000C94D20E0C94AC0EA6
:100050000C9480000C9480000C9480000C94800020
:100060000C94040F0C948000000000002500280070
:100070002B00040404040404040402020202020229
:10008000030303030303010204081020408001025C
:1000900004081020010204081020000000080002DB
:1000A000010000030407000000000000000023100E
:1000B00011241FBECFEFD8E0DEBFCDBF24E0AEE0FD
:1000C000B2E001C01D92A332B207E1F712E0A0E056
:1000D000B1E0E2E9FEE202C005900D92AE30B10758
:1000E000D9F710E0C8E5D0E004C02197FE010E94D6
:1000F0003714C735D107C9F70E9493100C944717DE
:100100000C94000090E0FC01E656FF4F2491FC01A6
:10011000EA57FF4F3491FC01EE58FF4FE491EE2374
:10012000C9F0222339F0233001F1A8F4213019F16C
:10013000223029F1F0E0EE0FFF1FE859FF4FA591A3
:10014000B4918FB7F894EC91611126C030953E239D
:100150003C938FBF08952730A9F02830C9F0243090
:1001600049F7809180008F7D03C0809180008F7758
:1001700080938000DFCF84B58F7784BDDBCF84B5DB
:100180008F7DFBCF8091B0008F778093B000D2CF6E
:100190008091B0008F7DF9CF3E2BDACF3FB7F89436
:1001A0008091A6029091A702A091A802B091A90205
:1001B00026B5A89B05C02F3F19F00196A11DB11DC2
:1001C0003FBFBA2FA92F982F8827BC01CD01620FFE
:1001D000711D811D911D42E0660F771F881F991FB9
:1001E0004A95D1F708958F929F92AF92BF92CF9286
:1001F000DF92EF92FF924B015C010E94CE006B01F7
:100200007C010E94CE006C197D098E099F09683E11
:10021000734081059105A8F321E0821A9108A10895
:10022000B10888EEC80E83E0D81EE11CF11C8114D1
:100230009104A104B10429F7FF90EF90DF90CF90D3
:10024000BF90AF909F908F90089508950895AF92BA
:10025000BF92CF92DF92EF92FF920F931F93CF93B3
:10026000DF936C017B018B01040F151FEB015E0115
:10027000AE18BF08C017D10759F06991D601ED91AA
:10028000FC910190F081E02DC6010995892B79F749
:10029000C501DF91CF911F910F91FF90EF90DF90FB
:1002A000CF90BF90AF900895FC01538D448D252FC2
:1002B00030E0842F90E0821B930B541710F0CF9600
:1002C000089501970895FC01918D828D981761F032
:1002D000A28DAE0FBF2FB11D5D968C91928D9F5F49
:1002E0009F73928F90E008958FEF9FEF0895FC0128
:1002F000918D828D981731F0828DE80FF11D858DDB
:1003000090E008958FEF9FEF0895FC01918D228D6D
:10031000892F90E0805C9F4F821B91098F739927F2
:1003200008958AE193E00E94850121E0892B09F478
:1003300020E0822F089580E090E0892B29F00E9430
:10034000910181110C9400000895FC01A48DA80F67
:10035000B92FB11DA35ABF4F2C91848D90E0019607
:100360008F739927848FA689B7892C93A089B18927
:100370008C91837080648C93938D848D981306C0C8
:100380000288F389E02D80818F7D80830895EF922C
:10039000FF920F931F93CF93DF93EC0181E0888F3F
:1003A0009B8D8C8D98131AC0E889F989808185FF0F
:1003B00015C09FB7F894EE89FF896083E889F989B1
:1003C00080818370806480839FBF81E090E0DF91B3
:1003D000CF911F910F91FF90EF900895F62E0B8D06
:1003E00010E00F5F1F4F0F731127E02E8C8D8E11C1
:1003F0000CC00FB607FCFACFE889F989808185FF28
:10040000F5CFCE010E94A501F1CFEB8DEC0FFD2FB2
:10041000F11DE35AFF4FF0829FB7F8940B8FEA89E2
:10042000FB8980818062CFCFCF93DF93EC01888DF1
:100430008823B9F0AA89BB89E889F9898C9185FD5F
:1004400003C0808186FD0DC00FB607FCF7CF8C91ED
:1004500085FFF2CF808185FFEDCFCE010E94A501FF
:10046000E9CFDF91CF91089520912F02260F3327F6
:10047000331F21323105ECF42091F002FC0190E0B1
:1004800080E0243069F082E00895A0912F0221914C
:10049000AC01415F5D4FA40FB52FB11D2C930196A8
:1004A000861798F380912F02680F60932F0280E0E7
:1004B000089581E008951092F00281E08093EF02A8
:1004C0001092CA0261E082E10E94820061E083E151
:1004D0000E948200E9EBF0E080818E7F8083808142
:1004E0008D7F808388E48093B80085E48093BC008E
:1004F0000895CF93DF9391E090930E028823B9F093
:10050000C091B800D091BA008091BC008A7B8093E2
:10051000BC0060E082E10E94820060E083E10E9412
:1005200082000E945B02D093BA00C093B800DF91B2
:10053000CF9108958F929F92AF92BF92CF92DF9208
:10054000EF92FF920F931F93CF93DF93D0911903F4
:10055000D13208F0D7C0182FC09118030E94CE00E6
:100560006B017C018091F00281116BC082E080936D
:10057000F0021093EF028FEF8093EE021092ED02E3
:10058000D093EC02A8EFB2E0ECECF2E080E0D813FC
:1005900091C01092CB028091CB02CC0FC82BC0939C
:1005A000CB028091CA02813009F088C01092CA0241
:1005B0000E94CE006B017C018091CB028093BB0036
:1005C0008091F2029091F302A091F402B091F502B1
:1005D000892B8A2B8B2BA1F00E94CE000091F20276
:1005E0001091F3022091F4023091F5026C197D090B
:1005F0008E099F09061717072807390708F442C014
:100600008091BC0083FDD8CF85EC8093BC000E9414
:10061000CE006B017C018091F002823009F450C061
:100620008091EE028F3F09F46FC08091EE0280321C
:1006300009F46CC08091EE02803309F469C084E053
:1006400026C08091F2029091F302A091F402B09141
:10065000F502892B8A2B8B2B09F484CF0E94CE00C4
:100660008090F2029090F302A090F402B090F50214
:100670006C197D098E099F0986169706A806B9068A
:1006800008F070CF8091F1020E94790285E010920B
:10069000F702109219031092F602DF91CF911F9189
:1006A0000F91FF90EF90DF90CF90BF90AF909F9011
:1006B0008F9008959D9191938F5F69CF85EEA5CF1F
:1006C0008091F2029091F302A091F402B091F502B0
:1006D000892B8A2B8B2B09F49ECF0E94CE00009190
:1006E000F2021091F3022091F4023091F5026C199C
:1006F0007D098E099F09061717072807390708F093
:100700008ACFC0CF81E0C3CF80E0C1CF82E0BFCF2E
:1007100083E0BDCF1F93CF93DF93EC01122F81E0D5
:100720008093F602609318031092F7021092190357
:10073000E881F9810190F081E02D642FCE010995C7
:10074000E881F9810190F081E02D612FCE010995BA
:1007500081E0DF91CF911F910C949A02FC01603DE2
:1007600087E07807B9F480E090E0AAE7BDE38683EC
:100770009783A087B18728E1DF01A75ABF4FE65AC8
:10078000FF4F4BE16C91808191810E948A0390E040
:1007900080E00895683E83E0780751F480E090E0BF
:1007A000AAEFBCE386839783A087B18720E1E4CFDB
:1007B000643F81E0780751F480E090E0AAE7BCE371
:1007C00086839783A087B18728E0D6CF6A3F7105DB
:1007D00051F480E090E0AAEFBBE386839783A08783
:1007E000B18720E0C9CF8FEF9FEF0895FC01603102
:1007F0007105B9F480E090E0A0E0BAE382839383CE
:10080000A483B58328E1DF01A75ABF4FE65AFF4F03
:100810004CE16C91808191810E948A0390E080E09C
:1008200008956830710551F480E090E0A0E8B9E3E4
:1008300082839383A483B58320E1E5CF643071057F
:1008400051F480E090E0A0E0B9E382839383A48335
:10085000B58328E0D8CF6230710551F480E090E094
:10086000A0E8B8E382839383A483B58320E0CBCF51
:100870008FEF9FEF0895CF92DF92EF92FF920F9349
:100880001F93CF93DF93D82FC62F613208F098C003
:100890000E94CE006B017C018091F00281116BC03F
:1008A00081E08093F0028093EF029FEF9093EE023D
:1008B0001092ED029C0F9093EC028093CB028091FA
:1008C000CB02DD0FD82BD093CB028091CA028130AE
:1008D00009F078C01092CA020E94CE006B017C0120
:1008E0008091CB028093BB008091F2029091F30241
:1008F000A091F402B091F502892B8A2B8B2BA1F0E9
:100900000E94CE000091F2021091F3022091F402B5
:100910003091F5026C197D098E099F09061717079A
:100920002807390708F448C08091BC0083FDD8CF60
:1009300085EC8093BC000E94CE006B017C0180910D
:10094000F002813009F440C08091ED028C1710F460
:10095000C091ED02ECECF2E0AAEAB2E080E08C1388
:1009600055C08C2FDF91CF911F910F91FF90EF9089
:10097000DF90CF9008958091F2029091F302A091C0
:10098000F402B091F502892B8A2B8B2B09F484CFCA
:100990000E94CE000091F2021091F3022091F40225
:1009A0003091F5026C197D098E099F09061717070A
:1009B0002807390708F070CF8091F1020E94790270
:1009C000C0E0CFCF85EEB5CF8091F2029091F302D7
:1009D000A091F402B091F502892B8A2B8B2B09F49C
:1009E000AECF0E94CE000091F2021091F30220914E
:1009F000F4023091F5026C197D098E099F090617E2
:100A000017072807390708F09ACFD6CF91919D9301
:100A10008F5FA5CF0895E091570280915602E817A5
:100A200030F4F0E0E655FD4F808190E008958FEFBF
:100A30009FEF089590915702809156022FEF3FEF5C
:100A4000981748F4E92FF0E0E655FD4F208130E09B
:100A50009F5F90935702C90108958091560290912B
:100A60005702891B990B0895CF92DF92EF92FF9264
:100A70000F931F93CF93DF937C01CB018A012091C9
:100A8000F602222389F0EB016B01C40ED51ECC15B2
:100A9000DD0569F06991D701ED91FC910190F0813C
:100AA000E02DC7010995F3CF642F0E943402C801DD
:100AB000DF91CF911F910F91FF90EF90DF90CF903A
:100AC0000895CF93DF931F92CDB7DEB7698320914E
:100AD000F6022223F9F020911903203258F021E088
:100AE00030E0FC013383228390E080E00F90DF91BF
:100AF000CF9108958091F702E82FF0E0E850FD4F84
:100B0000998190838F5F8093F7028093190381E02E
:100B100090E0ECCF61E0CE0101960E943402F7CF65
:100B200090E080E00895089580E0089581E00895C0
:100B30000895FC017387628790E080E00895FC01CE
:100B400064857585868597850895FC010190002050
:100B5000E9F73197AF01481B590BBC018AE193E0DB
:100B60000C9427018F929F92AF92BF920F931F9385
:100B7000CF93DF93CDB7DEB7A1970FB6F894DEBF62
:100B80000FBECDBF19A2423008F44AE08E010F5DBE
:100B90001F4F842E912CB12CA12CA50194010E94F1
:100BA000F613E62FB901CA01EA30F4F4E05DD8018A
:100BB000EE938D01232B242B252B79F790E080E0F9
:100BC000109719F0CD010E94A505A1960FB6F894D3
:100BD000DEBF0FBECDBFDF91CF911F910F91BF90B0
:100BE000AF909F908F900895E95CE1CF0C94A5059C
:100BF000CF93DF930E94A505EC0186E591E00E946A
:100C0000A5058C0F9D1FDF91CF9108954F925F92A4
:100C10006F927F928F929F92AF92BF92CF92DF920C
:100C2000EF92FF920F931F93CF936B017C01742E71
:100C3000AC019B010E945015882399F089E591E051
:100C4000CF911F910F91FF90EF90DF90CF90BF90C9
:100C5000AF909F908F907F906F905F904F900C948B
:100C6000A50546015701E894B7F82FEF3FEF4FE78E
:100C70005FE7C501B4010E94501581110DC02FEF2F
:100C80003FEF4FE75FE7C501B4010E9487121816D6
:100C90001CF48DE591E0D4CF2FEF3FEF4FE75FE4F9
:100CA000C701B6010E944B1518161CF481E691E0AD
:100CB000C7CF2FEF3FEF4FE75FECC701B6010E94B0
:100CC000871287FDF3CF20E030E0A901C701B6010C
:100CD0000E94871210E000E087FF0AC06DE28AE1FF
:100CE00093E00E94C7018C01F7FAF094F7F8F094B2
:100CF000C0E060E070E080E09FE37C1641F020E01F
:100D000030E040E251E40E94AA14CF5FF6CFA70181
:100D100096010E943E142B013C010E941C154B01C0
:100D20005C014AE00E94B2057C01E00EF11ECC237A
:100D3000C1F1C501B4010E948C129B01AC01C30139
:100D4000B2010E943D144B015C016EE28AE193E026
:100D50000E94C701E80EF91EC15018F120E030E0F2
:100D600040E251E4C501B4010E94ED122B013C01A7
:100D70000E941C154B01B12CA12C4AE0C501B40105
:100D80000E94B205E80EF91EC501B4010E948C1242
:100D90009B01AC01C301B2010E943D144B015C01F7
:100DA000DBCFC701CF911F910F91FF90EF90DF90A4
:100DB000CF90BF90AF909F908F907F906F905F90FB
:100DC0004F900895CF93DF9342E00E940606EC0116
:100DD00086E591E00E94A5058C0F9D1FDF91CF91C4
:100DE000089542E00C940606CF92DF92EF92FF92B4
:100DF0000F931F93CF93DF93EC01F62EE22E680141
:100E000081E08093F602609318031092F70210922B
:100E10001903E881F9810190F081E02D642FCE0162
:100E2000099580E00E949A026E2D8F2D0E943B044E
:100E3000109257028093560210E0E881F9810084F5
:100E4000F185E02DCE010995892B69F0E881F981C2
:100E50000284F385E02DCE010995F601E10FF11D25
:100E600080831F5FEACFDF91CF911F910F91FF9099
:100E7000EF90DF90CF9008952F923F924F925F9224
:100E80006F927F928F929F92AF92BF92CF92DF929A
:100E9000EF92FF920F931F93CF93DF93CDB7DEB7FF
:100EA000AA970FB6F894DEBF0FBECDBF9AA789A749
:100EB0001B016C0129E5C20ED11C7C013AE5E30E51
:100EC000F11C20E84BE6D6016C91F70180819181FD
:100ED0000E948A0364E670E080E090E00E94F300E4
:100EE00021E04BE6D6016C91F701808191810E944F
:100EF0008A0320E04CE6D6016C91F7018081918154
:100F00000E948A0368EC70E080E090E00E94F300A9
:100F100020E048E3D6016C91F701808191810E9425
:100F20008A0320E043E2D6016C91F7018081918130
:100F30000E948A0320E04BE6D6016C91F701808184
:100F400091810E948A0320E044E2D6016C91F7016E
:100F5000808191810E948A0320E04AE6D6016C914B
:100F6000F701808191810E948A032CE04AE6D60134
:100F70006C91F701808191810E948A036FE070E09B
:100F800080E090E00E94F30021E04AE1D6016C91FC
:100F9000F701808191810E948A0320E049E1D60116
:100FA0006C91F701808191810E948A0320E04BE1DE
:100FB000D6016C91F701808191810E948A0320E023
:100FC0004CE1D6016C91F701808191810E948A03E6
:100FD00020E44AE6D6016C91F701808191810E945C
:100FE0008A0328E143E2D6016C91F7018081918167
:100FF0000E948A0368E270E080E090E00E94F300C3
:101000009E012F5F3F4F5901890122E042E7D6013F
:101010006C91F701808191810E94F40620E043E207
:10102000D6016C91F701808191810E948A038981A8
:101030009A819827892798276CE070E00E94E21334
:101040007A8B698B1D8A1E8A1F8A188E1D861E86C2
:101050001F86188A412C512C320119A21AA21BA2F8
:101060001CA2198E1A8E1B8E1C8E1DA21EA21FA2E0
:1010700018A6912C812CFE8EED8E750129893A8956
:101080008216930609F485C087012CE044E7D60157
:101090006C91ED8DFE8D808191810E94F406898195
:1010A0009A81982789279827092E000CAA0BBB0B39
:1010B000480E591E6A1E7B1E8B819C8198278927AA
:1010C0009827092E000CAA0BBB0B2D853E854F855A
:1010D0005889280F391F4A1F5B1F2D873E874F876E
:1010E000588B8D819E81982789279827092E000C7F
:1010F000AA0BBB0B2D893E894F89588D280F391FAC
:101100004A1F5B1F2D8B3E8B4F8B588F8F8198858D
:10111000982789279827092E000CAA0BBB0B2DA115
:101120003EA14FA158A5280F391F4A1F5B1F2DA3B1
:101130003EA34FA358A789859A8598278927982782
:10114000092E000CAA0BBB0B298D3A8D4B8D5C8DA3
:10115000280F391F4A1F5B1F298F3A8F4B8F5C8FD7
:101160008B859C85982789279827092E000CAA0B28
:10117000BB0B29A13AA14BA15CA1280F391F4A1F23
:101180005B1F29A33AA34BA35CA33FEF831A930AE7
:1011900075CFB12CA12CC301B201A50194010E940D
:1011A0001814298B3A8B4B8B5C8B2D8F3E8F4F8F76
:1011B00058A36D857E858F859889A50194010E942D
:1011C000181429013A014D865E866F86788A6D89EA
:1011D0007E898F89988DA50194010E941814690158
:1011E0007A016DA17EA18FA198A5A50194010E940D
:1011F00018142D8B3E8B4F8B588F698D7A8D8B8D6C
:101200009C8DA50194010E941814298F3A8F4B8F51
:101210005C8F69A17AA18BA19CA1A50194010E9478
:10122000181449015A01A9A5BAA51A968D919C9145
:101230008430910509F4ACC00CF085C097FF99C0CB
:101240006D8D7E8D8F8D98A10E948E1220E030E0F2
:1012500040E858E30E94ED12D10111966D937D9301
:101260008D939C9314976D857E858F8598890E94B8
:101270008E1220E030E040E858E30E94ED12F101C8
:101280006583768387839087C701B6010E948E129B
:1012900020E030E040E858E30E94ED12D1011996B9
:1012A0006D937D938D939C931C976D897E898F8917
:1012B000988D0E948E1220E030E043E053E40E94BB
:1012C000AA14F101658776878787908B698D7A8D5F
:1012D0008B8D9C8D0E948E1220E030E043E053E421
:1012E0000E94AA14D10151966D937D938D939C9386
:1012F0005497C501B4010E948E1220E030E043E013
:1013000053E40E94AA14F101658B768B878B908F32
:1013100081E08083AA960FB6F894DEBF0FBECDBFE2
:10132000DF91CF911F910F91FF90EF90DF90CF90C1
:10133000BF90AF909F908F907F906F905F904F90F5
:101340003F902F9008958630910511F11CF007977A
:1013500009F076CF1414150416041704B4F5A3018C
:1013600092013054410951092D873E874F87588B90
:1013700067CF1C141D041E041F042CF4B0E4DB1AF8
:10138000E108F1085DCFE0E4DE0EE11CF11C58CF6E
:1013900029893A894B895C891216130614061506A9
:1013A00044F43054410951092D8F3E8F4F8F58A37B
:1013B00047CF89899A89AB89BC89905CAF4FBF4F71
:1013C0008D8F9E8FAF8FB8A33BCFD301C201905CAE
:1013D000AF4FBF4F8D879E87AF87B88B31CF1F939D
:1013E000CF93DF93EC01162F81E08093F602609398
:1013F00018031092F70210921903E881F981019005
:10140000F081E02D642FCE01099580E00E949A02C0
:1014100061E0812F0E943B04109257028093560294
:10142000E881F9810284F385E02DCE010995DF91F1
:10143000CF911F9108952F923F924F925F926F929A
:101440007F928F929F92AF92BF92CF92DF92EF9254
:10145000FF920F931F93CF93DF93CDB7DEB76E97B5
:101460000FB6F894DEBF0FBECDBF7C015C0129E54D
:10147000A20EB11C6C013AE5C30ED11C4AE3D501A2
:101480006C91F601808191810E94EF0980FF55C126
:101490008E010F5F1F4F2EE04BE3D5016C91F601DB
:1014A000808191810E94F406C984DA84DC24CD24F1
:1014B000DC240B851C851027012710272D843E84F2
:1014C000322423243224D70112968D909D90AD9022
:1014D000BC90159769817A81762767277627072E32
:1014E000000C880B990B0E948E12A50194010E949A
:1014F000ED12F70121A532A543A554A50E943D1484
:101500006F87788B898B9A8B6B817C817627672795
:101510007627072E000C880B990B0E948E12A501CE
:1015200094010E94ED12D7019D962D913D914D9110
:101530005C91D0970E943D146B8B7C8B8D8B9E8B26
:101540006D817E81762767277627072E000C880B12
:10155000990B0E948E12A50194010E94ED12F701D1
:1015600021A932A943A954A90E943D144B015C0151
:101570006F817885762767277627072E000C880BE2
:10158000990B0E948E1220E030E048EA51E40E945C
:101590003D142CE53FEE46EA53E40E94AA1420E0F5
:1015A00030E048EA51E40E943E14D7011C966D9346
:1015B0007D938D939C931F9716962D913D914D9100
:1015C0005C9119972B8F3C8F4D8F5E8FB601DD0C90
:1015D000880B990B0E948E122B8D3C8D4D8D5E8D4C
:1015E0000E94ED12F70125A936A947A950AD0E9426
:1015F0003D146F8B788F898F9A8FB801110F880BEC
:10160000990B0E948E122B8D3C8D4D8D5E8D0E940C
:10161000ED12D701D9962D913D914D915C91DC97BA
:101620000E943D142B013C01B101330C880B990B36
:101630000E948E122B8D3C8D4D8D5E8D0E94ED1281
:10164000F701FD9620813181428153810E943D1432
:10165000D7011A96ED91FC911B97E830F10508F03F
:101660006CC0EB5CF44F0C9437143D0B6B0BB60B5A
:10167000DF0B030C370C6D0CA00C2F8538894989C2
:101680005A8950962D933D934D935C9353972F8990
:10169000388D498D5A8D5C962D933D934D935C9377
:1016A0005F972B893C894D895E8954962D933D9394
:1016B0004D935C935797F70140A251A262A273A287
:1016C00058968D929D92AD92BC925B9764A375A340
:1016D00086A397A332C00B891C892D893E89305877
:1016E00050960D931D932D933C93539777FA7094D6
:1016F00077F87094F701448E558E668E778E2F851D
:10170000388949895A8954962D933D934D935C931A
:1017100057972F89388D498D5A8D90962D933D93EB
:101720004D935C939397808E918EA28EB38E9496F8
:101730006D937D938D939C9397976E960FB6F894C7
:10174000DEBF0FBECDBFDF91CF911F910F91FF90F4
:10175000EF90DF90CF90BF90AF909F908F907F9051
:101760006F905F904F903F902F9008950F8518894C
:1017700029893A893058F701008B118B228B338BE2
:101780000F89188D298D3A8D30585C960D931D93D5
:101790002D933C935F970B891C892D893E89305886
:1017A000048B158B268B378B77FA709477F87094AF
:1017B00090964D925D926D927C929397B4CF2B89C7
:1017C0003C894D895E8950962D933D934D935C9352
:1017D0005397F701448E558E668E778E0F85188944
:1017E00029893A89305854960D931D932D933C9333
:1017F00057970F89188D298D3A8D305800A311A362
:1018000022A333A35DCFB7FAB094B7F8B094509643
:101810008D929D92AD92BC9253979058F701648F30
:10182000758F868F978F8B899C89AD89BE89B058BB
:10183000848B958BA68BB78B77FA709477F870941E
:1018400040A251A262A273A28F859889A989BA8900
:10185000B058808F918FA28FB38F8F89988DA98D6B
:10186000BA8DB05884A395A3A6A3B7A366CFB7FA41
:10187000B094B7F8B09450968D929D92AD92BC9270
:1018800053979058F701648F758F868F978F2F85A8
:10189000388949895A8954962D933D934D935C9389
:1018A00057972F89388D498D5A8D90962D933D935A
:1018B0004D935C9393978B899C89AD89BE89B05871
:1018C000808F918FA28FB38F77FA709477F870948E
:1018D00044A255A266A277A230CFB7FAB094B7F867
:1018E000B094F701808A918AA28AB38A90585C9654
:1018F0006D937D938D939C935F972B893C894D8944
:101900005E8954962D933D934D935C93579740A2D7
:1019100051A262A273A22F85388949895A895896A3
:101920002D933D934D935C935B972F89388D498D13
:101930005A8D94962D933D934D935C939797FDCE3E
:10194000B7FAB094B7F8B094F701808A918AA28A66
:10195000B38A90585C966D937D938D939C935F971B
:101960008F859889A989BA89B058848B958BA68B65
:10197000B78B8F89988DA98DBA8DB05880A391A30C
:10198000A2A3B3A32B893C894D895E89208F318F17
:10199000428F538F44A255A266A277A2CECEEF9279
:1019A000FF920F931F93CF93DF93CDB7DEB76AAD4E
:1019B0007C0129E5E20EF11CD7016C9329852111E8
:1019C000ABC021E3FC01B896DF011D922A95E9F72F
:1019D0008C01065A1F4F45E7F801808191810E94D2
:1019E000EF09893109F0A2C020E84BE6D7016C91DC
:1019F000F801808191810E948A0364E670E080E0B2
:101A000090E00E94F30020E04BE6D7016C91F801D2
:101A1000808191810E948A0364E670E080E090E01A
:101A20000E94F30021E04BE6D7016C91F801808120
:101A300091810E948A0368EC70E080E090E00E944F
:101A4000F30023E04AE1D7016C91F8018081918194
:101A50000E948A0322E049E1D7016C91F80180815C
:101A600091810E948A034BE1D7016C91F80180813A
:101A700091810E94EF09847E282F28614BE1D701D4
:101A80006C91F801808191810E948A034CE1D70119
:101A90006C91F801808191810E94EF09282F2861C3
:101AA0004CE1D7016C91F801808191810E948A03F9
:101AB0004DE1D7016C91F801808191810E94EF097D
:101AC000807F282F23604DE1D7016C91F801808140
:101AD00091810E948A0322E247E3D7016C91F801C9
:101AE000808191810E948A0321E048E3D7016C91B3
:101AF000F801808191810E948A0364E670E080E0B1
:101B000090E00E94F30090E080E0DF91CF911F9180
:101B10000F91FF90EF90089521E3FE013996DC01CB
:101B2000989601900D922A95E1F752CF8FEF9FEF93
:101B3000ECCF0C94F115EF92FF920F931F93CF937C
:101B4000DF93EC017B01FB0101900020E9F7319765
:101B50008F01061B170B88819981009729F02A8134
:101B60003B812017310788F4B8016F5F7F4F0E94D7
:101B70007A160097B9F0998388831B830A832C8196
:101B80003D81232B11F4FC0110821D830C83B701CE
:101B900088819981DF91CF911F910F91FF90EF90F4
:101BA0000C94401788819981009711F00E94F115DB
:101BB000198218821D821C821B821A82DF91CF91AA
:101BC0001F910F91FF90EF900895CF93DF93EC0159
:101BD000198218821B821A821D821C8265E671E0BE
:101BE0000E949B0DCE01DF91CF910895CF93DF939B
:101BF000EC01198218821B821A821D821C826EE6F9
:101C000071E00E949B0DCE01DF91CF910895CF939B
:101C1000DF93EC01198218821B821A821D821C82BA
:101C200069E771E00E949B0DCE01DF91CF9108958D
:101C3000FC017C969CE0DB0101900D929A95E1F706
:101C40000895FC0170969CE0DB0101900D929A953D
:101C5000E1F7089585ED8093BC008091F2029091A8
:101C6000F302A091F402B091F5020796A11DB11DF7
:101C700023E0B695A795979587952A95D1F720915A
:101C8000BC0024FD03C01092F00208954091F202BE
:101C90005091F3026091F4027091F502452B462BAE
:101CA000472B69F30097A105B10541F02AE22A9577
:101CB000F1F700C00197A109B109E1CF8091F102CC
:101CC0000C9479021F920F920FB60F9211242F934A
:101CD0003F938F939F93AF93BF938091A202909174
:101CE000A302A091A402B091A5023091A10223E029
:101CF000230F2D3758F50196A11DB11D2093A10288
:101D00008093A2029093A302A093A402B093A50291
:101D10008091A6029091A702A091A802B091A90279
:101D20000196A11DB11D8093A6029093A702A093D6
:101D3000A802B093A902BF91AF919F918F913F915B
:101D40002F910F900FBE0F901F90189526E8230F2C
:101D50000296A11DB11DD2CF1F920F920FB60F9206
:101D600011242F933F934F935F936F937F938F93A0
:101D70009F93AF93BF93EF93FF938AE193E00E9409
:101D8000A501FF91EF91BF91AF919F918F917F91AD
:101D90006F915F914F913F912F910F900FBE0F90D8
:101DA0001F9018951F920F920FB60F9211242F9328
:101DB0008F939F93EF93FF93E0912A03F0912B036E
:101DC0008081E0913003F091310382FD1BC090814E
:101DD000809133038F5F8F7320913403821741F01A
:101DE000E0913303F0E0E65EFC4F958F8093330380
:101DF000FF91EF919F918F912F910F900FBE0F90B8
:101E00001F9018958081F4CF1F920F920FB60F92FA
:101E100011242F933F934F935F936F937F938F93EF
:101E20009F93AF93BF93EF93FF938091B900887F07
:101E3000803609F44AC0F0F5883209F4A7C018F5D5
:101E4000803109F49BC0B8F4882309F4F9C08830C4
:101E500009F494C0FF91EF91BF91AF919F918F9141
:101E60007F916F915F914F913F912F910F900FBE96
:101E70000F901F901895883109F488C0803251F76F
:101E80008093EE0214C0803409F49DC040F4803386
:101E9000B9F38833F9F68093EE0285ECB0C0803553
:101EA00009F485C0883509F496C0883499F60E94F3
:101EB0002A0ED0CF883909F48CC038F5883729F03C
:101EC00050F4883611F0803729F683E08093F002D1
:101ED0001092510257C0883809F47BC0803919F03C
:101EE000803809F0B7CF80915102803208F071C07C
:101EF000E091510281E08E0F809351028091BB00EE
:101F0000F0E0EF5CFD4F80833DC0803B39F0E0F4B2
:101F1000803A09F479C0883A09F09CCF84E0809334
:101F2000F0021092300210922F02E0915402F091D0
:101F30005502099580912F0281110FC081E0809395
:101F40002F0210920F0209C0803C09F4A6CF883CF2
:101F500009F4A3CF883B09F07DCFE091300281E006
:101F60008E0F80933002F0E0E15FFD4F808180931F
:101F7000BB009091300280912F0229C08091CB024A
:101F80008093BB0085EC8093BC0064CF9091ED0200
:101F90008091EC02981758F5E091ED0281E08E0FE8
:101FA0008093ED02F0E0E453FD4F8081E9CFE091B2
:101FB000ED0281E08E0F8093ED028091BB00F0E096
:101FC000E453FD4F80839091ED028091EC029817CD
:101FD000C8F285E8D8CFE091ED0281E08E0F8093C2
:101FE000ED028091BB00F0E0E453FD4F80838091CF
:101FF000EF0281115CCF81E08093CA0284EA809372
:10200000BC001092F00226CF85EC8093BC001092A9
:10201000F00280915102803230F4E0915102F0E000
:10202000EF5CFD4F10826091510270E0E09152022E
:10203000F091530281E392E00995109251020ACF88
:102040001092EE0234CFCF93DF93EAE1F3E01382F4
:10205000128248EE53E060E070E04483558366836B
:1020600077838AE091E09183808385EC90E0958787
:10207000848784EC90E09787868780EC90E0918B52
:10208000808B81EC90E0938B828B82EC90E0958B3F
:10209000848B86EC90E0978B868B118E128E138E3C
:1020A000148EA7EBB3E013961C921E92129714960F
:1020B0004D935D936D937C9317978CE191E011960E
:1020C0009C938E93E3ECF3E08EE291E09183808326
:1020D00040E050E060E07AE3428353836483758399
:1020E00040E050E06AE77DE346835783608771876D
:1020F0001386128614861586168617868CE0E3ED05
:10210000F3E0EF01982F19929A95E9F7EFEDF3E0DC
:10211000EF0119928A95E9F7B0931E04A0931D046C
:10212000DF91CF910895789484B5826084BD84B5A1
:10213000816084BD85B5826085BD85B5816085BDC2
:1021400080916E00816080936E001092810080917A
:102150008100826080938100809181008160809302
:102160008100809180008160809380008091B10027
:1021700084608093B1008091B00081608093B00052
:1021800080917A00846080937A0080917A008260E6
:1021900080937A0080917A00816080937A008091A8
:1021A0007A00806880937A001092C10010925702E2
:1021B000109256021092F702109219030E945B02CD
:1021C00085E291E0909355028093540286E291E07B
:1021D00090935302809352028CE08093B800E09178
:1021E0002A03F0912B0382E08083E0912603F09193
:1021F00027031082E0912803F09129038FEC80835C
:1022000010923203E0912E03F0912F0386E0808339
:10221000E0912C03F0912D03808180618083E09117
:102220002C03F0912D03808188608083E0912C0342
:10223000F0912D03808180688083E0912C03F091E0
:102240002D0380818F7D8083C8E6CF938DB79EB7A5
:10225000C1970FB6F8949EBF0FBE8DBFADB7BEB786
:10226000119681E3E8E5F2E001900D928A95E1F79D
:1022700083EC93E00E94CF0C6C018DB79EB7C296A1
:102280000FB6F8949EBF0FBE8DBFC114D10409F1E3
:1022900081E891E00E94F6050D2C000CEE08FF0885
:1022A0004AE0C701B601F7FE0DC06DE28AE193E096
:1022B0000E94C70166277727CB016C197D098E091B
:1022C0009F094AE00E94B20586E591E00E94A505BB
:1022D000FFCF8AE991E00E94F80568E873E180E0A9
:1022E00090E00E94F30068E873E180E090E00E94D3
:1022F000F3008DEB91E00E94F80568E873E180E05F
:1023000090E00E94F30068E572E083EC93E00E94A5
:102310003C078DEC91E00E94F8058FED91E00E9462
:10232000F8056091590270915A0280915B02909178
:102330005C020E94F10684EF91E00E94F605609134
:102340005D0270915E0280915F02909160020E9436
:10235000F10684EF91E00E94F605609161027091B0
:10236000620280916302909164020E94E20687EF0C
:1023700091E00E94F805609165027091660280917B
:102380006702909168020E94F10684EF91E00E943A
:10239000F6056091690270916A0280916B029091DA
:1023A0006C020E94F10684EF91E00E94F6056091B4
:1023B0006D0270916E0280916F02909170020E9486
:1023C000E20668E873E180E090E00E94F300CF93BA
:1023D0008DB79EB7C1970FB6F8949EBF0FBE8DBF45
:1023E000ADB7BEB7119681E3E8E5F2E001900D923A
:1023F0008A95E1F783EC93E00E94CF0C8DB79EB7EE
:10240000C2960FB6F8949EBF0FBE8DBFC0E0D0E05D
:1024100083EC93E00E941B0A65E972E083EC93E091
:102420000E94210E60919502709196028091970210
:10243000909198020E94F1068BE092E00E94F605CE
:102440006091990270919A0280919B0290919C02F6
:102450000E94F1068BE092E00E94F60560919D02D9
:1024600070919E0280919F029091A0020E94F106BD
:102470008BE092E00E94F60569E872E083EC93E05D
:102480000E94180E6091890270918A0280918B02DD
:1024900090918C020E94F1068BE092E00E94F6057A
:1024A00060918D0270918E0280918F0290919002C6
:1024B0000E94F1068BE092E00E94F6056091910285
:1024C0007091920280919302909194020E94F10681
:1024D0008BE092E00E94F6056091CF037091D003EB
:1024E0008091D1039091D2030E94E20662E370E0F2
:1024F00080E090E00E94F300209709F489CF0E94C9
:102500009101882309F484CF0E94000081CF0E94AA
:10251000C91208F481E00895E89409C097FB3EF4DD
:1025200090958095709561957F4F8F4F9F4F992320
:10253000A9F0F92F96E9BB279395F695879577959E
:102540006795B795F111F8CFFAF4BB0F11F460FF5E
:102550001BC06F5F7F4F8F4F9F4F16C0882311F0B6
:1025600096E911C0772321F09EE8872F762F05C0CA
:10257000662371F096E8862F70E060E02AF09A9565
:10258000660F771F881FDAF7880F9695879597F95A
:102590000895990F0008550FAA0BE0E8FEEF1616F4
:1025A0001706E807F907C0F012161306E407F50747
:1025B00098F0621B730B840B950B39F40A2661F0BB
:1025C000232B242B252B21F408950A2609F4A1405E
:1025D000A6958FEF811D811D08950E9400130C9414
:1025E00071130E94631338F00E946A1320F0952340
:1025F00011F00C945A130C94601311240C94A5132D
:102600000E94821370F3959FC1F3950F50E0551F00
:10261000629FF001729FBB27F00DB11D639FAA2737
:10262000F00DB11DAA1F649F6627B00DA11D661F86
:10263000829F2227B00DA11D621F739FB00DA11DA7
:10264000621F839FA00D611D221F749F3327A00D61
:10265000611D231F849F600D211D822F762F6A2FFD
:1026600011249F5750409AF0F1F088234AF0EE0F62
:10267000FF1FBB1F661F771F881F91505040A9F78F
:102680009E3F510580F00C945A130C94A5135F3FA4
:10269000E4F3983ED4F3869577956795B795F795CB
:1026A000E7959F5FC1F7FE2B880F911D9695879543
:1026B00097F9089597F99F6780E870E060E00895C2
:1026C0009FEF80EC089500240A941616170618064A
:1026D0000906089500240A94121613061406050626
:1026E0000895092E0394000C11F4882352F0BB0FB7
:1026F00040F4BF2B11F460FF04C06F5F7F4F8F4F1A
:102700009F4F089557FD9058440F551F59F05F3F54
:1027100071F04795880F97FB991F61F09F3F79F003
:1027200087950895121613061406551FF2CF469585
:10273000F1DF08C0161617061806991FF1CF869507
:102740007105610508940895E894BB2766277727EB
:10275000CB0197F908952F923F924F925F926F921B
:102760007F928F929F92AF92BF92CF92DF92EF9221
:10277000FF920F931F93CF93DF93CDB7DEB7CA1BA2
:10278000DB0B0FB6F894DEBF0FBECDBF09942A88CD
:10279000398848885F846E847D848C849B84AA8475
:1027A000B984C884DF80EE80FD800C811B81AA8102
:1027B000B981CE0FD11D0FB6F894DEBF0FBECDBFCD
:1027C000ED010895AA1BBB1B51E107C0AA1FBB1F47
:1027D000A617B70710F0A61BB70B881F991F5A95AD
:1027E000A9F780959095BC01CD010895A1E21A2E1C
:1027F000AA1BBB1BFD010DC0AA1FBB1FEE1FFF1FA5
:10280000A217B307E407F50720F0A21BB30BE40BF4
:10281000F50B661F771F881F991F1A9469F760953B
:102820007095809590959B01AC01BD01CF010895F5
:10283000052E97FB1EF400940E942F1457FD07D01D
:102840000E94F61307FC03D04EF40C942F145095FD
:102850004095309521953F4F4F4F5F4F089590958C
:102860008095709561957F4F8F4F9F4F0895EE0F24
:10287000FF1F0590F491E02D09945058BB27AA271B
:102880000E9455140C9471130E94631338F00E9437
:102890006A1320F039F49F3F19F426F40C94601366
:1028A0000EF4E095E7FB0C945A13E92F0E94821373
:1028B00058F3BA17620773078407950720F079F475
:1028C000A6F50C94A4130EF4E0950B2EBA2FA02DB0
:1028D0000B01B90190010C01CA01A0011124FF27CD
:1028E000591B99F0593F50F4503E68F11A16F040C8
:1028F000A22F232F342F4427585FF3CF46953795C7
:102900002795A795F0405395C9F77EF41F16BA0B8B
:10291000620B730B840BBAF09150A1F0FF0FBB1F39
:10292000661F771F881FC2F70EC0BA0F621F731F82
:10293000841F48F4879577956795B795F7959E3FDF
:1029400008F0B0CF9395880F08F09927EE0F979570
:10295000879508950E94BE140C9471130E946A1307
:1029600058F00E94631340F029F45F3F29F00C9463
:102970005A1351110C94A5130C9460130E948213E6
:1029800068F39923B1F3552391F3951B550BBB279E
:10299000AA2762177307840738F09F5F5F4F220FE3
:1029A000331F441FAA1FA9F335D00E2E3AF0E0E8DA
:1029B00032D091505040E695001CCAF72BD0FE2F24
:1029C00029D0660F771F881FBB1F261737074807B8
:1029D000AB07B0E809F0BB0B802DBF01FF27935870
:1029E0005F4F3AF09E3F510578F00C945A130C94C7
:1029F000A5135F3FE4F3983ED4F3869577956795EA
:102A0000B795F7959F5FC9F7880F911D96958795A4
:102A100097F90895E1E0660F771F881FBB1F6217C3
:102A200073078407BA0720F0621B730B840BBA0B81
:102A3000EE1F88F7E09508950E948A1388F09F574B
:102A400098F0B92F9927B751B0F0E1F0660F771FD2
:102A5000881F991F1AF0BA95C9F714C0B13091F0C8
:102A60000E94A413B1E008950C94A413672F782F4B
:102A70008827B85F39F0B93FCCF38695779567958D
:102A8000B395D9F73EF490958095709561957F4FF9
:102A90008F4F9F4F08950E94C91208F48FEF089539
:102AA0000E94C912880B990B08950F931F93CF931F
:102AB000DF938230910510F482E090E0E0912104F0
:102AC000F091220430E020E0B0E0A0E0309799F4EB
:102AD0002115310509F44AC0281B390B2430310572
:102AE000D8F58A819B816115710589F1FB0193837A
:102AF0008283FE0111C040815181028113814817F8
:102B00005907E0F04817590799F4109761F01296A9
:102B10000C93129713961C933296CF01DF91CF91AD
:102B20001F910F9108950093210410932204F4CF74
:102B30002115310551F04217530738F0A901DB0187
:102B40009A01BD01DF01F801C1CFEF01F9CF9093E8
:102B5000220480932104CDCFFE01E20FF31F819365
:102B600091932250310939832883D7CF20911F04B4
:102B700030912004232B41F4209102013091030174
:102B80003093200420931F04209100013091010113
:102B90002115310541F42DB73EB740910401509104
:102BA0000501241B350BE0911F04F0912004E2176E
:102BB000F307A0F42E1B3F0B2817390778F0AC0160
:102BC0004E5F5F4F2417350748F04E0F5F1F50933D
:102BD000200440931F04819391939FCFF0E0E0E0A5
:102BE0009CCFCF93DF930097E9F0FC0132971382DB
:102BF0001282A0912104B0912204ED0130E020E086
:102C00001097A1F420813181820F931F20911F041E
:102C1000309120042817390709F061C0F09320048F
:102C2000E0931F04DF91CF910895EA01CE17DF07EB
:102C3000E8F54A815B819E0141155105B1F7E90133
:102C4000FB83EA8349915991C40FD51FEC17FD0707
:102C500061F4808191810296840F951FE901998327
:102C60008883828193819B838A83F0E0E0E01296DF
:102C70008D919C9113970097B9F52D913C911197E7
:102C8000CD010296820F931F20911F0430912004E2
:102C90002817390739F6309751F51092220410920F
:102CA0002104B0932004A0931F04BCCFD383C2831C
:102CB00040815181840F951FC817D90761F44E5F79
:102CC0005F4F88819981480F591F518340838A81C2
:102CD0009B81938382832115310509F0B0CFF09356
:102CE0002204E09321049ECFFD01DC01C0CF1382BA
:102CF0001282D7CFB0E0A0E0E0E8F6E10C94AD138B
:102D00008C01009751F4CB010E9455158C01C8012C
:102D1000CDB7DEB7E0E10C94C913FC01E60FF71F55
:102D20009C0122503109E217F30708F49DC0D90134
:102D3000CD91DC911197C617D70798F0C530D10512
:102D400030F3CE0104978617970708F3C61BD70BFD
:102D50002297C193D1936D937C93CF010E94F1157B
:102D6000D6CF5B01AC1ABD0A4C018C0E9D1EA09102
:102D70002104B0912204512C412CF12CE12C10970C
:102D800031F580911F04909120048815990509F070
:102D90005CC04616570608F058C08091000190911B
:102DA0000101009741F48DB79EB740910401509105
:102DB0000501841B950BE817F90708F055C0F0933F
:102DC0002004E0931F04F90171836083A0CF8D91EB
:102DD0009C91119712966C90129713967C90139772
:102DE000A815B90559F56C0142E0C40ED11CCA14EE
:102DF000DB0420F1AC014A195B09DA011296159740
:102E000080F06282738251834083D9016D937C93F9
:102E1000E114F10471F0D7011396FC93EE9312972D
:102E200076CF22968C0F9D1FF90191838083F30149
:102E3000EFCFF0932204E093210469CF481659069E
:102E400008F42C017D01D3019ACFCB010E945515C6
:102E50007C01009749F0AE01B8010E943717C80104
:102E60000E94F115870153CF10E000E050CFFB0125
:102E7000DC0102C001900D9241505040D8F70895F6
:102E8000FB01DC0101900D920020E1F70895F89418
:022E9000FFCF72
:102E920000002304800000000000C7012701540144
:102EA2001402850163017701000000006105340509
:102EB20090050A052D051A050B0500000000930573
:102EC200990DCF0C1B0A210E180E980598059F0527
:102ED200AE03F60399053C079805940596059405FB
:102EE200E50D070EF60D0D0A006E616E00696E6645
:102EF200006F7666004D50552D3638383600496ED3
:102F020076656E53656E7365004D505536383836AA
:102F1200004572726F7220696E697469616C697AB8
:102F2200696E6720494D553A200046617374494DD8
:102F3200552063616C6962726174696F6E2026202C
:102F420064617461206578616D706C65004B6565C4
:102F52007020494D55206C6576656C2E0043616C7E
:102F62006962726174696F6E20646F6E65210041DF
:102F72006363656C2062696173657320582F592FF2
:102F82005A3A20002C20004779726F2062696173DF
:0E2F9200657320582F592F5A3A20000900006D
:00000001FF
